:020000040000FA
:060000000201070221B11C
:03002B0002243B71
:0300330002241D87
:03003B0002245547
:030043000223D1C4
:030053000222275F
:03006B000223F776
:10008300022007E5C754F84401F5C77901220000AF
:100093000080FB120086B900030200F1E4791A78AC
:1000A30002B800028004F709D8FCE4791C7802B88E
:1000B30000028004F709D8FCE49002817840791BA0
:1000C3008002F0A3D8FCD9FA7AC07B1C9001377860
:1000D300DB79018015E493A3AD82AE838A828B839F
:1000E300F0A3AA82AB838D828E83D8E9D9E7758288
:1000F300747583E174031201197582917583007419
:100103000012011975D00075813F751881751902A8
:10011300759F00020096C09FF59FE473D09F22D085
:1001230083D082C09FE493C0E0740193C0E0740263
:1001330093F59F229D03A903DF03D903FF0000B4B6
:10014300000028002800283075A000A000A000A00F
:100153000000080008E001F000100010001000107B
:10016300001000100050005000500010001000D08C
:10017300070000000000000F0001000500307507B4
:10018300001000010081FF00000000FFFFFF0202DA
:10019300021784010000FD830211840100001A1D6F
:1001A300020D84010000B8020211840100001B1D2E
:1001B300020B84010000CE02FFFF0100FF200217A3
:1001C300840100000384021184010000491D020917
:1001D300840000000000021F84030000FA021700DD
:1001E300D70BD70BD70BD70BD70BD70BD70BD70BFC
:1001F300D70BD70BD70BD70BD70BB70DD50DB10D2E
:1002030001E803057710020AFFFFFF00FEFF12015A
:100213002229CB031201223CCB031201225DCB0323
:10022300120122C8CB0312012209CC031201222A94
:10023300CC031201226BCC0312012203CD03120162
:10024300224BCD03120122B9B503120122CCB5030F
:10025300120122FDB50312012237B60312012290C7
:10026300B603120122D7B6031201221FB7031201EC
:10027300224EB7031201227DB703120122B4B70342
:10028300120122FBB70312012214B80312012269DF
:10029300B80312012297B803120122D1B803120145
:1002A30022E2A602120122E5A70212012212A802EB
:1002B30012012263A80212012286A80212012298C7
:1002C300A8021201229BA802120122D9A80212013C
:1002D300224DA902120122B9A90212012281AA0206
:1002E300120122A7AA02120122E1AA021201227814
:1002F300AB02120122CAAB02120122FBAB021201B2
:10030300222CAC0212012239AC02120122A3AC024C
:10031300120122A6AC02120122B3AC02120122B6D0
:10032300AC021201220DAD0212012210AD02120124
:100333002249AD021201224CAD021201224FAD023D
:10034300120122B1AD02120122B4AD021201220840
:10035300AE0212012251AE0212012261AE0212015B
:100363002294AE02120122A1AE02120122A4AE0215
:100373001201220CAF021201220EB002120122B2AC
:10038300B0021201221BB10212012259B102120161
:10039300224BCF0212012248D002120122DED002E8
:1003A30012012229D1021201228DD1021201221738
:1003B300D202120122D0D202120122F2D50212017C
:1003C300226FD70212012292D70212012209A2033D
:1003D300120122AEA303120122CEA303120122EFC4
:1003E300A40312012242A5031201224FA603120104
:1003F3002277A603120122A4A603120122DCA6037C
:100403001201223AA70312012286A703120122ED49
:10041300A7031201222DA8031201226AA8031201C5
:100423002298A80312012242A9031201224CA90314
:1004330012012259A9031201228CA9031201229845
:10044300A903120122B0A903120122BAA9031201BE
:1004530022127F00120122207F00120122387F0026
:10046300120122507F00120122677F00120122F93C
:10047300D701120122A3D8011201221FD9011201AF
:10048300223DDA0112012279DA0112012214DB0181
:10049300120122F8DB01120122BBDC01120122331B
:1004A300DD01120122C1DE0112012232DF0112013C
:1004B30022ECDF01120122DEE0011201221EE10122
:1004C300120122D2E10112012204E201120122FAF5
:1004D300E3011201223CE4011201225AE401120158
:1004E30022DFE401120122A3E501120122C2E70186
:1004F30012012235AE031201224BAE03120122690F
:10050300AE031201227AAF0312012284AF03120158
:1005130022AFB003120122A6B10312012213B203C8
:100523001201222D8A03120122D18A031201220809
:100533008B031201225F8B03120122748D031201BC
:1005430022209A01120122D19A01120122E19A0179
:10055300120122779B01120122B49B01120122F0A6
:100563009B01120122FB9B01120122D19C0112016A
:1005730022AE9D011201223E9E01120122F59E012F
:1005830012012203A201120122F2A301120122A4E9
:10059300A4011201226DA501120122B2A8011201C8
:1005A300225CA90112012285AA0112012241AC0198
:1005B300120122E1AC011201222FAD011201226EC0
:1005C300AD0112012241AE0112012275AE011201E9
:1005D3002202AF01120122C4C50112012250C60139
:1005E300120122B4C701120122C0C701120122FB6A
:1005F300C7011201226AC80112012273C901120143
:10060300227CCA0112012243CB01120122A0CC0198
:10061300120122BECC01120122DBCC01120122A65F
:10062300CD01120122CECD0112012298D001120177
:10063300229DD001120122B6D20112012204D3015C
:1006430012012274D301120122B2D3011201228EAC
:10065300D4011201224ED5011201229AD5011201B1
:10066300229DD501120122E1D50112012229D601D1
:1006730012012268D6011201228AD601120122BE7A
:10068300D60112012221D70112012223850312016F
:10069300222C85031201223A85031201228D850340
:1006A300120122AC8503120122F1850312012235C6
:1006B3008703120122D08703120122148803120137
:1006C300223E8803120122AD8803120122F388031C
:1006D3001201226A89031201221B8A03120122508A
:1006E30025001201226025001201220126001201B9
:1006F300225D26001201221A270012012236280049
:1007030012012268280012012297280012012244B4
:100713002A00120122BB2C001201222B2F001201EE
:10072300221D30001201221631001201221D330056
:100733001201221136001201224037001201224415
:100743003900120122543A00120122E33B00120144
:1007530022D43C00120122223D00120122913D00CD
:10076300120122B53D00120122063E00120122A70A
:100773004200120122A8430012012209440012017F
:1007830022344400120122FA440012012248AA032F
:1007930012012252AA0312012297AA03120122ABC9
:1007A300AA031201223BAB0312012263AB03120122
:1007B300229EAB03120122C7AB03120122FBAB0340
:1007C30012012210AC031201227BAC031201229C02
:1007D300AC03120122B0AC03120122C5AC03120117
:1007E30022FFAC0312012264AD03120122A7AD0361
:1007F300120122D1AD031201220DAE031201226DAB
:10080300DA0312012222740012012205750012017B
:1008130022807500120122BB75001201220C7700A1
:10082300120122957700120122AD79001201223FB5
:100833007C00120122F17C00120122107E001201C1
:1008430022697E00120122008003120122438003E9
:10085300120122C780031201229A8103120122711D
:1008630084031201221AC603120122C7C60312010E
:1008730022D4C70312012213C8031201226DC80335
:100883001201223FD103120122A2D1031201223FFE
:10089300D2031201226DD2031201228ED20312015E
:1008A30022C9D203120122E9D2031201220D9403B9
:1008B3001201229994031201225895031201227006
:1008C30096031201228A980312012297C50212018C
:1008D30022BCC50212012290C602120122FDC602E9
:1008E30012012253C702120122EFC702120122236F
:1008F300C902120122FEC9021201225DCA021201BB
:10090300222ECB02120122BACB02120122BDCB024C
:1009130012012207CC0212012279CC0212012224F5
:10092300CD0212012244CD021201228CCD0212010A
:1009330022A8CD0212012222CE0212012230CE02BF
:10094300120122BFCE0212012228CF02120122730A
:100953009D03120122F89D031201223A9E03120104
:10096300221E9F031201228B9F03120122CF9F039A
:1009730012012213A00312012240A00312012268D4
:10098300A003120122A0A003120122DEA003120180
:100993002205A1031201227FA103120122C9A1038F
:1009A300120122AB5D00120122785F001201226660
:1009B3006100120122BA6100120122E561001201F5
:1009C30022936200120122C36200120122F262002A
:1009D30012012205630012012246630012012272F2
:1009E3006300120122C06300120122F763001201A7
:1009F30022436400120122A2640012012235650021
:100A03001201221F66001201220E6700120122EE5C
:100A130068001201220D6E00120122666E0012019F
:100A2300224F70001201221E7200120122A07200D6
:100A3300120122EE7300120122FF7300120122B889
:100A4300C803120122A3C903120122E6C90312013A
:100A53002235CA0312012286CA03120122D7CA030E
:100A6300120122664500120122E7450012012214F9
:100A730046001201225D46001201225E4700120168
:100A830022AD4700120122294900120122AB49007D
:100A9300120122084A001201225B4A001201224A73
:100AA3004B00120122DF4C00120122A94D0012015A
:100AB30022B94D00120122E34D00120122E64D003E
:100AC300120122C94E00120122B44F001201226109
:100AD3005000120122BE50001201221751001201D0
:100AE300227B5100120122235200120122BF520025
:100AF3001201224C5300120122C153001201221D84
:100B030054001201227C5400120122A3540012014A
:100B1300226155001201225257001201229B5700F5
:100B2300120122CB57001201223E5800120122C4A7
:100B33005900120122745A00120122995A0012011B
:100B430022D85A00120122ED5A00120122305B0012
:100B5300120122A05B00120122EA5B00120122F4BF
:100B63005C00120122755D00120122D7BB02120143
:100B73002222BC021201222EBC0212012202BD0259
:100B830012012219BD0212012256BD02120122874F
:100B9300BD02120122BFBD0212012215BE021201C3
:100BA300222BBE0212012267BE021201227ABE026A
:100BB300120122A1BE02120122D5BE02120122FBA2
:100BC300BF0212012245C10212012241C2021201D7
:100BD300225EC302120122F77F0012012296F6025F
:100BE30012012244FA0212012278FB02120122EFBF
:100BF3009A02120122B29D02120122B89D02120131
:100C03002275A002120122CFA202120122C198036F
:100C1300120122589903120122169A03120122404B
:100C23009A03120122769C031201222284011201EB
:100C3300225D8401120122B18E011201221D900155
:100C43001201221A91011201229F9401120122859D
:100C53009501120122D19501120122EB9501120196
:100C6300222C9601120122359601120122E59601EA
:100C7300120122B59701120122FC9701120122628F
:100C83009801120122D4980112012201C303120117
:100C930022DEC30312012222C4031201225CC40315
:100CA300120122F4C40312012263C5031201226C50
:100CB300C50312012278C50312012292C503120152
:100CC30022BCC503120122ECC50312012270F002FB
:100CD3001201227DF00212012297F002120122CAB0
:100CE300F00212012208F1021201226DF102120137
:100CF3002282F10212012299F102120122A7F102CA
:100D0300120122B6F102120122CBF102120122E0FA
:100D1300F102120122EBF102120122F7F102120198
:100D23002204F20212012213F2021201221EF20223
:100D330012012243F202120122E7F202120122FC03
:100D4300F20212012211F3021201222BF302120109
:100D53002248F30212012265F30212012270F30208
:100D63001201221CF402120122FDF40212012222BA
:100D7300F5021201222DF50212012242F50212019F
:100D83002256F502120122B7F502120122BDF50225
:100D9300120122C3F502120122C9F502120122E156
:100DA300F50212012214F6021201227FB10212018E
:100DB30022A1B10212012269B20212012223B50259
:100DC30012012239B6021201225AB7021201223449
:100DD300B802120122E3B8021201220580021201B5
:100DE300229C8002120122348102120122248202F7
:100DF3001201225B82021201226E8202120122DCA4
:100E030082021201227784021201229E84021201BD
:100E13002240850212012275850212012286850273
:100E2300120122FF850212012220860212012238BA
:100E3300860212012290870212012299890212016D
:100E430022E98B02120122EC8C021201223B8D0259
:100E5300120122CFE701120122CCE801120122B7CD
:100E6300E901120122C1E901120122E3E9011201A0
:100E730022EFE90112012241EB0112012270EB0181
:100E8300120122A0EC01120122E2EC011201220E56
:100E9300EE01120122E4EE0112012236EF011201EA
:100EA3002295EF01120122CCEF0112012207F0017A
:100EB300120122A2F301120122BBF3011201223D0E
:100EC300F4011201224BF401120122A0F4011201D8
:100ED30022AEF4011201221BF5011201228DF5014C
:100EE300120122D3F501120122F7D2031201221CAF
:100EF300D3031201228DD303120122B5D8021201AA
:100F030022BED802120122C7D802120122F8D90246
:100F130012012217DC021201224DDC021201228788
:100F2300DC02120122BDDC02120122F7DC021201F3
:100F3300222BDD0212012257DD02120122A0DD0263
:100F4300120122DADD0212012222DE0212012278CC
:100F5300DE02120122ADDE0212012208DF021201BB
:100F63002242DF0212012293DF02120122C9DF02B1
:100F730012012203E00212012226E00212012231B1
:100F8300DE031201225DDE03120122B8DE03120129
:100F930022C2DE03120122D2DE03120122238F03B7
:100FA300120122628F03120122EB8F03120122002E
:100FB30090031201224B900312012291900312011C
:100FC30022EA900312012239910312012292910322
:100FD3001201229F9203120122989303120122D538
:100FE30093031201225CE003120122F8AF01120104
:100FF300227AB201120122EEB3011201224BB40193
:10100300120122F4B401120122F1B5011201227975
:10101300B60112012205B7011201222AB7011201FA
:10102300227AB7011201221EBA0112012298BA01D3
:1010330012012284BB01120122BEBB01120122FE56
:10104300BB011201229FBD01120122D0BD01120179
:101053002223BE011201226CBE01120122DDBE0158
:101063001201220CBF0112012226BF011201223CF0
:10107300C0011201224CC001120122D3C10112018D
:1010830022F3C10112012229C201120122A9C301C3
:1010930012012222C40112012261C401120122940D
:1010A300C50112012272CF03120122D6CF0312010E
:1010B3002285D003120122A4D003120122F8D00307
:1010C3001201227DDD031201228EDD03120122C7EC
:1010D300E10312012206E203120122C9E203120113
:1010E30022DCDE03120122ECDE0312012207DF03FE
:1010F3001201226FDF0312012281DB031201220599
:10110300DC031201226DDC03120122D6D703120184
:1011130022FFD7031201226CD803120122BFD80386
:1011230012012218D903120122D2BF03120122E7AE
:10113300BF03120122EEC00312012275C103120183
:1011430022E9C10312012203C2031201221AC203BC
:101153001201222DC20312012245C2031201225A97
:10116300C2031201227BC203120122CCC203120169
:10117300221DB20312012234B203120122ADB203C3
:1011830012012282B30312012254B50312012294E5
:10119300BC0312012224BD03120122A2BD031201CA
:1011A3002233BE03120122C5BE0312012218BF035C
:1011B30012012222BF0312012231BF03120122476F
:1011C300BF031201225ABF03120122BBBF03120144
:1011D30022CFBF0312012253D903120122BDD90327
:1011E300120122C8D903120122D8D903120122E322
:1011F300D903120122FFD9031201224BD603120194
:101203002274D6031201229DD60312012237D7037B
:101213001201224FD70312012291D7031201229800
:10122300E802120122A2E802120122E2E8021201FC
:10123300222BE90212012265E902120122BBE90213
:10124300120122DAE90212012262EC021201226B7C
:10125300EC02120122BCEC02120122E5EC021201A3
:1012630022FAEC021201226AED02120122F8ED02C7
:101273001201223CEE0212012265EE02120122E467
:10128300EE0212012221EF0212012258EF02120193
:10129300226AEF0212012289EF0212012292EF0267
:1012A30012012244F002120122ADD403120122FEE4
:1012B300D40312012287D503120122EDD5031201B3
:1012C3002239B90312012263B90312012258BA0366
:1012D3001201227DBA0312012221BB03120122A8AB
:1012E300BB0312012286DC0312012276CD03120115
:1012F30022ACCD03120122DFCD0312012238CF032A
:1013030012012279DF031201228FDF0312012299D6
:10131300DF03120122BCE003120122B4E002120136
:101323002271E102120122ACE102120122DDE1028B
:101333001201223FE2021201228BE202120122F683
:10134300E20212012270E3021201226FE40212018F
:1013530022F6E50212012279E602120122DFE602F9
:10136300120122F2E602120122EDE7021201223AF1
:10137300E802120122C3FB02120122D9FB0212016D
:10138300227DFC02120122BCFC02120122D9FC02C2
:101393001201220AFD0212012257FD021201228BC1
:1013A300FD02120122C6FD02120122BBFF0212013D
:1013B30022888D02120122A58E021201223F8F0282
:1013C3001201220392021201222692021201220A20
:1013D30094021201225C9402120122EF9402120180
:1013E300222B9602120122AC9602120122209702AE
:1013F300120122D097021201225CF6011201228E01
:10140300F601120122CAF60112012231F70112017B
:101413002210E20312012256E203120122EFDF033C
:10142300120122C8FF0212012282E203120122AB3F
:10143300E2031201221BE103E066701008A3E066D9
:10144300700A08A3E066700408A3E06622C3E79667
:101453000809E7960809E7960809E79622C3E09684
:1014630008A3E09608A3E09608A3E09622C008C369
:10147300E096F50808A3E096420808A3E096420820
:1014830008A3E09645087001D3D00822080808EAAB
:10149300C0E0EBC0E086F0E7A4FA180986F0E7A401
:1014A3002AFA180986F0E7A42AFA180986F0E7A4AD
:1014B3002AFA1986F0E7A4FBE5F02AFA190886F060
:1014C300E7A42BFBE5F03AFA190886F0E7A42BFB17
:1014D300E5F03AFA18180986F0E7A4C5F02BFBE407
:1014E3003AFA1908E7C5F0C6A426F6E5F03BFBE493
:1014F3003AFA1886F0E7A4F6E5F00826F6E43B0886
:10150300F6E43A08F6D0E0FBD0E0FA22E4CFC0E0FC
:10151300E4CEC0E0E4CDC0E0E4CCC0E075F020E66A
:1015230026F608E633F608E633F608E633F6181827
:1015330018EC33FCED33FDEE33FEEF33FFC3EC97D2
:1015430009ED9709EE9709EF97191919400FFFEC69
:1015530097FC09ED97FD09EE97FE191906D5F0BF23
:10156300ECF709EDF709EEF709EFF7191919D0E0D0
:10157300FCD0E0FDD0E0FED0E0FF22E4C396F60805
:10158300E496F608E496F608E496F6226016080850
:1015930008C6C313C618C613C618C613C618C6137F
:1015A300C6D5E0EA22700908080822601618181840
:1015B300C6C333C608C633C608C633C608C633C651
:1015C300D5E0EA22E627F60809E637F60809E63702
:1015D300F60809E637F622E026F608A3E036F60811
:1015E300A3E036F608A3E036F622E026F008A3E0EF
:1015F30036F008A3E036F008A3E036F022C3E697FE
:10160300F60809E697F60809E697F60809E697F655
:1016130022C3E096F008A3E096F008A3E096F00852
:10162300A3E096F022E657F60809E657F60809E61E
:1016330057F60809E657F622E056F608A3E056F6F1
:1016430008A3E056F608A3E056F622E056F008A3F6
:10165300E056F008A3E056F008A3E056F022E06657
:10166300F608A3E066F608A3E066F608A3E066F6CC
:1016730022E0F608A3E0F608A3E0F608A3E0F622CA
:10168300E6F008A3E6F008A3E6F008A3E6F022E0FC
:10169300FAA3E0FBA3E0FCA3E0FD22EAF0A3EBF056
:1016A300A3ECF0A3EDF022E0F8A3E0F9A3E0FAA3A2
:1016B300E0FB22E8F0A3E9F0A3EAF0A3EBF022CAEF
:1016C300C0E0E6F0A308DAFAD0E0FA22CAC0E0E00C
:1016D300A3C582CCC582C583CDC583F0A3C582CC07
:1016E300C582C583CDC583DAE6D0E0CA22C3E498B8
:1016F300F8E499F91217318026C3E49AFAE49BFBC4
:10170300E920E7E9121731E498F8E499F922C3E4F0
:1017130098F8E499F9121731E498F8E499F9C3E4D5
:101723009AFAE49BFB22EB20E7CFE920E7E0B9003C
:1017330010BB0008E88AF084F8AAF022E4FBC8FA98
:1017430022EB70227B10C833C8C933C9335007C397
:101753009AC3DBF280069A50012ADBEAC833F4C845
:10176300C933F4C9FA2275F008E4C833C8C933C9C8
:1017730033C99AC99B5004C92AC93BD5F0ECFBC8AD
:1017830033F4C8E4C9FA22600D08C6A2E713C618E9
:10179300C613C6D5E0F322600C08C6C313C618C629
:1017A30013C6D5E0F422700422600D18C6C333C6F5
:1017B30008C633C6D5E0F41822251810AF08F5186B
:1017C300400C15198008F51840021519D2AF2200F4
:1017D300C0D0251810AF08F518500C05198008F56E
:1017E3001850020519D2AFD0D0222518F58210AFB8
:1017F30008F518400C15198008F51840021519D280
:10180300AF851983222518F582E43519F58322253E
:1018130018F8E43519F9222518FAE43519FB2225BD
:1018230018FCE43519FD22E4732518C582C0E0E5F0
:101833001934FFC583C0E0E518C3958224F810AFBF
:10184300088583198582188008858319858218D2B3
:10185300AFCEF0A3E520F0A37808E608F0A3DEFA04
:10186300EFF0A3E58124FAF8E608F0A3E608F0A375
:10187300E608F0A30808E608F0A3E608F0A315813C
:101883001581D0E0FED0E0F8158115811581E8C0FF
:10189300E0EEC0E0222518C582C0E0E51934FFC59B
:1018A30083C0E0E518C3958224F910AF0885831936
:1018B3008582188008858319858218D2AFCEF0A35C
:1018C300E520F0A37808E608F0A3DEFAEFF0A3E53D
:1018D3008124FBF8E608F0A3E608F0A30808E6086D
:1018E300F0A3E608F0A315811581D0E0FED0E0F85F
:1018F30015811581E8C0E0EEC0E0228519838518C3
:1019030082E0A3FEE0A3F5207808E0A3F608DFFA5F
:10191300E0A3FFE0A3C0E0E0A3C0E0E0A3C0E0E0F9
:10192300A3C0E0E0A3C0E010AF0885821885831947
:101933008008858218858319D2AFD083D0820201B3
:101943001F851983851882E0A3FEE0A3F52078089C
:10195300E0A3F608DFFAE0A3FFE0A3C0E0E0A3C042
:10196300E0E0A3C0E0E0A3C0E010AF0885821885E3
:1019730083198008858218858319D2AFD083D082DA
:1019830022C0D02518C582C0E0E51934FFC583C045
:10199300E0E518C3958224F310AF08858319858287
:1019A300188008858319858218D2AFC8F0A3E9F09F
:1019B300A3EAF0A3EBF0A37908E709F0A3D8FAECC4
:1019C300F0A3EDF0A3EEF0A3EFF0A3D0E0F0A3D0EB
:1019D300E0F0A3D0E0F0A3E520F0A3E5F0F0A3222C
:1019E300851983851882E0C0E0A3E0F9A3E0FAA398
:1019F300E0FBA37808E0F608A3DFFAE0FCA3E0FD30
:101A0300A3E0FEA3E0FFA3E0C0E0A3E0C0E0A3E007
:101A1300F5D0A3E0F520A3E0A3F5F010AF0885838C
:101A2300198582188008858319858218D2AFD082E0
:101A3300D083D0E0F8D0E0327404800674028002D0
:101A43007401C0E0F4041217EDD0E01216C2227440
:101A530004800474028000CCC0E0EDC0E0E518C34C
:101A63009CCCAD1950011D10AF068C188D19800642
:101A73008C188D19D2AF1216CFD0E0FDD0E0FC2226
:101A8300D083D082E9C0E0E493A3C386F0C5F09588
:101A9300F0F908E493A386F0C5F095F0700BE49396
:101AA300A3C3994005E9048002A3E475F002A425C9
:101AB30082F582E5F03583F583D0E0F9E493A3C0A2
:101AC300E0E493C0E022D083D082ECC0E0EDC0E03C
:101AD300E493A3FCE493A3FDED4C600D121B15EC02
:101AE30024FFFCED34FFFD80EFE493A3FCE493A318
:101AF300FDED4C600D121B54EC24FFFCED34FFFD97
:101B030080EFD0E0FDD0E0FCE493A3C0E0E493C019
:101B1300E022C0E0C3E49396087401939618400F43
:101B2300E49366700808740193661870007019A333
:101B3300A3C3E49396087401939618A3A3400DD00E
:101B4300E0D0E0D0E0021B05A3A3A3A3A3A3D0E0AE
:101B530022C0E0C0F088F0E4936670080874019333
:101B630066187000A8F0A3A3700BD0F0D0E0D0E00B
:0C1B7300D0E0021B05A3A3D0F0D0E022BC
:101B800074F6121898EAFEEBFF8C088D09EE2434E7
:101B9000F8E43FF9E8FCE9FDEE2435121E4CFAEEBC
:101BA0002437121E4CF88508F0A4C885F00A850970
:101BB000F0A4250AF9EA28F8E439F97A257B00121D
:101BC0001731EA8C828D83F0FA131313541FF8EE49
:101BD00028F8E43FF9E8245DF582E439F583E0C0B4
:101BE000E074075AF8D0E0B800028004C313D8FCB0
:101BF000A2E0EE50082434F582E43F801824361227
:101C00001E4CF5F0EA84A8F0EE28F8E43FF9E82449
:101C100038F582E439F583E0F97F0302194474F75B
:101C2000121898EAFEEBFFEE2434121E4CC0E0EED0
:101C30002435F582E43FF583D0E0F08E828F83A3D4
:101C4000A3A3A3A3A3A3C082C0838E828F83A3A3D5
:101C5000A3A3A3E0F8A3E0F9D083D082E0C398F572
:101C600008A3E099F509EE247F121E4C6401703E32
:101C7000EE2480F582E43FF583C082C0838E828F9C
:101C800083A3A3A3A3A3E0240108A3E03400F9D015
:101C900083D082E0687003A3E06970127CC07D0687
:101CA000120B0BEE247FF582E43FF583E4F0AC08E1
:101CB000AD09EEFAEFFB121B80E9F91223C37F0294
:101CC00002194474EF121898900369E064086005E3
:101CD000E06407702A9061C8E06024900397E0F404
:101CE000601DE0F875F00DA4C8AAF02AF9749928CF
:101CF000FE740339FF8E828F83A3A3A3E0700302D7
:101D00001DD1906060E0C0E0EE2468F582E43FF50C
:101D100083D0E0F0750CFC750D06750800750900A0
:101D2000E5D914F50AE5D95403F50E60127403657C
:101D30000E6043E50A600AEE2467121E4C700280B2
:101D4000759006F7E06401601F121E4960047A0472
:101D500080027A00E50AC39AFA95E0FB1209B58A77
:101D6000088B09EA45097005120D8D8064121E4921
:101D700070048A0C8B0DE50A6012850C82850D8338
:101D8000F50BE5D9F0A3150BE50B70F6121E4960B3
:101D90004474FC250AF50A780C121A3FAC0AA90E05
:101DA000EEFAEFFB120BD174021217D2E97026AAD9
:101DB00008AB091212AF793D8E828F83A3A3A3A330
:101DC000E0FA7B0012082FEEFAEFFB120B2F120C39
:101DD000317900806F7403650E6051850A107511AA
:101DE000007810121A3FAC0CAD0DAA08AB09120B0B
:101DF0009574021217D2EE2468121E4C648070048F
:101E0000747F8001E0F50C780C121A43E50EF50C96
:101E1000780C121A43A90AAC08AD09900397E0FAAE
:101E20007B001207FF74021217D28013900369E03F
:101E30006408700BAC0CAD0DEEFAEFFB120C011246
:101E40000D9979017F0A021944EE2483F582E43F5B
:101E5000F583E02274F212189874FC1217BCEAFEA3
:101E6000EBFF8909A2AFE433F508C2AF021F1EE001
:101E7000601B780C121A3FAC0BA90EEEFAEFFB12A6
:101E80000BCB74021217D27404250BF50B740125C9
:101E90000BF5D9850ED9E50B6018F50A850C8285FE
:101EA0000D83E0F5D9A385820C85830D150AE50A1B
:101EB00070EA75E195EE2463F8E43FF97A007B005F
:101EC000A2AFE433F50BC2AF88828983E0FCA3E0C4
:101ED000FDEC4D603A88828983E0FAA3E0FB8A82B8
:101EE0008B83E0FCA3E0FD88828983ECF0A3EDF016
:101EF0008A828B83E4F0A3F088828983E0FCA3E0EC
:101F0000FDEC4D700A88828983A3A3E4F0A3F0E579
:101F10000BA2E092AF1212AF9006C7E004F0EE24DD
:101F200063121E4CF8A3E0F9E8496064EE246312E2
:101F30001E4C2402F8A3E03400F988828983E582EC
:101F40002402F50CE43583F50DE0F50BA3E0F50E66
:101F5000EE2462121E4C640170369061D0E0F812DB
:101F60001E4960047C0480027C007480C398FA954A
:101F7000E0FBE50B2CF8E43400F9E82402F850010A
:101F800009C3EA98EB99A2D265D0334003021E6FD1
:101F90009006C7E0604D9006C8E0F89006C7E0C321
:101FA00098500C74026509703A9006C9E060348E4E
:101FB000828F83A3A3A3A3E0851882851983121FB0
:101FC000F37402121808E8121FF39006C6E028F016
:101FD0007402121822AA18AB197901120859900636
:101FE000C7E4F0E508A2E092AF74041217D27F07AD
:101FF000021944F0A3E4F09006C7E0F822000000C4
:10200000851A87851BC622C0E074EB121984A2AF23
:10201000E433F508C2AF759B00906182E0A2E05006
:1020200030E591A2E0502A7591FE7401651A702185
:1020300012219A120CC1122188121A521222FF7414
:10204000041217D2E9640170057901120CF1121C17
:10205000C3906182E0A2E5505DE591A2E55057751D
:1020600091DF900369E064076005E06408702F1257
:10207000219A7401651A703E120CC1122188121A3D
:10208000521222FF74041217D2E96401700579011B
:10209000120CF17901EEFAEFFB121E548018E06485
:1020A0000D701390038BE004F064287002E4F07A62
:1020B00000E0F9120D9F906182E0A2E64003022148
:1020C0005DE591A2E6400302215D7591BF90036931
:1020D000E064057008120CA9120CB58003120CAF55
:1020E000751A00120D0FE990036AF07900120CF1D5
:1020F000120A757A017B00900368E0F912127F9052
:102100007803E0644270569006FBE014F0704EC213
:10211000AF12211400781DD0E0F618D0E0F6E59F4C
:102120005407F87005750DFF8003750D7FC4C0E07E
:10213000781CE6F50A08E6550DF50B740B780A12C3
:10214000179AD0E0250AF8906270E0A2E740F8E81C
:10215000C333906272F0906270E0D2E0F0906181DF
:10216000E0A2E35009E5E9A2E3500375E9F7A3E033
:10217000A2E75009E591A2E7500375917FE508A217
:10218000E092AF7F080219E38E828F83E0F8A3E02C
:10219000C82416F582E438F58322900397E0F87599
:1021A000F00DA4C8AAF02AF9749928FE740339FF27
:1021B00022C0E0C0D0C082C083906183E0A2E05022
:1021C00009E5BFA2E0500375BFFEE0A2E15009E5BA
:1021D000BFA2E1500375BFFDE0A2E25009E5BFA236
:1021E000E2500375BFFBE0A2E35009E5BFA2E35054
:1021F0000375BFF7E0A2E45009E5BFA2E450037500
:10220000BFEFE0A2E55009E5BFA2E5500375BFDFCF
:10221000E0A2E65009E5BFA2E6500375BFBFD08338
:10222000D082D0D0D0E032C0E074F2121984E5A799
:10223000A2E6500FE5A1A2E6500953A7BF75A1BFC2
:1022400012227BE5A7A2E5500CE5A1A2E5500653BA
:10225000A7DF75A1DFE5A7A2E15009E5A1A2E15042
:102260000375A1FDE5A7A2E2500CE5A1A2E250068C
:1022700053A7FB75A1FB7F010219E374F7121898AD
:10228000751A01900369E064067015120C558A8274
:102290008B83A3A3A3A3A3A3E0FAA3E0FB120C9751
:1022A000A2AFE433FED2AF90036FE0640170187AFE
:1022B000207B00900368E0F91213997A207B00904C
:1022C0000368E0F9121285906182E0D2E6F0900690
:1022D000F8E0602185C61B801690036EE0640170F3
:1022E00008E5C654F84405F5C653BEFC1220007438
:1022F00001651A60E4EEA2E092AF7F020219447415
:10230000F11218988A088B098C0A8D0B90837E78BD
:102310000812163B740F121808780C12167490836A
:102320007E780C12163B7808790C1214509083B604
:1023300050107808790C12160078081214704014A6
:10234000800E780C7908121600780C121470500464
:102350007901800279007F0802194474ED121898FF
:102360008A088B098C0A8D0B90837E780812163BA5
:102370007413121808780C12167490837E780C125D
:10238000163B780C790812145040117808790C1219
:102390001600AA08AB09AC0AAD0B802275100075B7
:1023A00011007512007513017810790C121600785F
:1023B0001079081215C7AA10AB11AC12AD137F0C1F
:1023C000021944C082C083E9906000F0D083D082BB
:1023D00022C0E074F2121984A2AFE433FED2AFC27D
:1023E000C0E5D1A2E4500675D10F1211D1EEA2E0E2
:1023F00092AF7F010219E3C0E074F2121984A2AF18
:10240000E433FED2AFE589A2E150031211237589AE
:1024100000C2C5EEA2E092AF7F010219E3C0E074F2
:10242000F2121984A2AFE433FED2AFE58BA2E050E2
:1024300003121123758B00C2E880D8C0E0C0D0E839
:10244000C0E0A8A8D2AFC2C7E8A2E792AFD0E0F838
:10245000D0D0D0E032C0E0C0D0E8C0E0E9C0E0EACF
:10246000C0E0EBC0E0C082C083A2AFE433F9D2AFDA
:10247000900F62E0F8A3E0687008539AFBA3740120
:102480008022C2E9900F62E0F8740128F074E2281B
:10249000F582E4340EF583E0F5C1900F62E0C39459
:1024A000804002E4F0E9A2E092AFD083D082D0E095
:1024B000FBD0E0FAD0E0F9D0E0F8D0D0D0E032C2E2
:1024C000AF020000220020202020202020202028F1
:1024D00028282828202020202020202020202020DC
:1024E0002020202020208810101010101010101014
:1024F0001010101010100404040404040404040454
:1025000010101010101010414141414141010101D2
:1025100001010101010101010101010101010101AB
:1025200001101010101010424242424242020202B8
:10253000020202020202020202020202020202027B
:0625400002101010102033
:10254800FFFFFFFFFFFFFFFFC082C083E9901D4828
:10255800F0D083D08202011F74F612182CE9900281
:10256800DCF090033BE0F508750900740278081266
:1025780017A9AA08AB091212F79002DD122F1390BF
:1025880002DD123300606F90033BE075F003A4FA9C
:10259800ABF01212F79002FA122F139002FA1233CC
:1025A80000700B9002DD1232D11212FD80489002A9
:1025B800FA1242657AFF7BFF1210A57A0080198A09
:1025C80008750900740278081217A9123D0D74FFE6
:1025D800122713E4F0A3F00A90033BE0F8EAC3984B
:1025E80040DD79051206F79002DCE0F91205E37A7E
:1025F800817B07120955023DB074F412182C8A0821
:102608008B09EB548060479002DCE0F91212678A6C
:102618000A8B0BAE0AAF0BEE4F602A8E828F83E0D7
:1026280064B0701A120709E960148E828F83A3A31D
:10263800A3A3E0F9EE2405FAE43FFB1206D9EEFA6B
:10264800EFFB121255AA08E5096480FB80047A00A2
:102658007B0002286374F212182C74FB1217BCEA70
:10266800FEEBFFEE4F60457403121808EEF0A3EF7F
:10267800F0851882851983ECF0A3EDF07402121826
:1026880008E9F0AA18AB191205DDE9F508707574A8
:1026980013121808E0F50AA3E0F50BE50A450B60EC
:1026A800638E828F83122C9CEE4F70057508028012
:1026B800537A067B001212F78A0C8B0DA80CA90D11
:1026C800E8497005750813803B88828983E41227DE
:1026D80013EEF0A3EF12282FE50AF0A3E50BF09014
:1026E80002E01228289002E06017E0FCA3E08003D3
:1026F800EAFCEBFD8C828D8312282870F38C828D86
:1027080083123928A90874050244E5F0A312424748
:10271800A32274F212182C8908890C750D00740311
:10272800780C1217A9850C0A850D0B9002DFF09022
:1027380002DD123733122826602E1212FD7900802E
:102748001D890C750D007402780C1217A99002DD12
:10275800123BCC8882F583A3A3E4F0A3F00990038D
:102768003BE0F8E9C39840D990033BE0FA850AF0CA
:10277800A4CAA8F0850BF0A428FB1212F78A0C8BC8
:102788000DAE0CAF0DEE4F700302281C90033BE01A
:10279800FC850AF0A4CCA8F0850BF0A428FD7900EC
:1027A80012123D7C0080318D0C750D007403780C7D
:1027B8001217A98A828B8312282188828983E4F0E0
:1027C80012282EA3A3F0A3F00DEDC3950840D8EE70
:1027D800250AFEEF350BFF0C90033BE0F8ECC3989D
:1027E80050288C0C750D007402780C1217A99002F1
:1027F800DD122821E82402500109FAE9FB8A828BBC
:1028080083EEF0A3EFF07D0080BFE5089002DFF0D3
:102818007900800279130244E8123BD0F922A3A37D
:102828001232D5EA4B22A3124247A3A3A32274F47F
:1028380012182C7900EAA2E0501F750869750983FF
:102848007808121A3F79107C047D007A4A7B1D12A1
:1028580006F174021217D2E9F980007F040218FE0B
:10286800C082C0839002E0123300601C8882898392
:10287800A3A3E06A7003A3E06B8882898370E8A34E
:10288800A3A3A31232D180047A007B0002255974D5
:10289800F212182C74FD1217BCEAFEEBFF851882A1
:1028A800851983E4F0A3F074021218087401F01279
:1028B80032FD70141208A71212F79002E3122F13B8
:1028C8001232FD7003022A29123013EE2404F50A8D
:1028D800E43FF50B850A82F583E024FE603C24FC86
:1028E800607424FE607E24FE700302297924FE7041
:1028F8000302298624FE700302299324FE70030232
:1029080029A024FE70030229AD24FC70030229CEFD
:1029180024FE70030229E6022A221208A79002E583
:10292800EAF0A3EB122A35120253E96003022A22C5
:102938009002E5121A568E828F83A3A3A3A3A31233
:1029480042658508828509831232D11206C1740254
:102958001217D2022A22AC18AD19EEFAEFFB1207B1
:102968000F0229F1AC18AD19EEFAEFFB120715802A
:1029780078AC18AD19EEFAEFFB12071B806BAC1898
:10298800AD19EEFAEFFB120721805EAC18AD19EE17
:10299800FAEFFB1207278051AC18AD19EEFAEFFBDE
:1029A80012072D80447402121812880C890D780CB5
:1029B800121A3F7402121822EEFAEFFB1207337450
:1029C800021217D28023AC18AD19EEFAEFFB1207EA
:1029D80039E9F870167402121808E4F0803CAC1853
:1029E800AD19EEFAEFFB12073FE9F8E8602C8E828A
:1029F8008F83A3E064146022850A82850B83E090AC
:102A080002E5F08518828519831232D19002E61208
:102A18002F13E8A3122A3512024DEEFAEFFB120625
:102A2800977402121808E0F974030244E5F07CE593
:102A38007D028508828509831232D52274E812182E
:102A48002C74FA1217BC7404121808ECF0A3EDF0F9
:102A58008A128B13EA2405F50EE43513F50FEA24E0
:102A680002F510E43513F511851082F5831232D181
:102A780012038B8A0A8B0B7508007C037D00790092
:102A88007AE57B0212123DE50E2402F516E4350FB5
:102A9800F5177402121812880C890D780C121A3F57
:102AA800850E82850F83A3A3A3A3E0F50C750D0003
:102AB800780C121A3FE50E2405F50CE4350FF50DD8
:102AC800780C121A3F8516828517831235D812059D
:102AD800FB74061217D28A0C8B0DE50C450D70039A
:102AE800022C658020851882851983E08882898375
:102AF800F00508851882851983A3E0C0E0122CA68A
:102B0800D0E0F00508E50A24FBFAE50B34FFFBC327
:102B1800E5089AE49B4003022C657E007F0085123D
:102B280082851383A3A3A3A3E0F5097809121A43A6
:102B3800E4F514F5157814121A3F7514E2751502A8
:102B48007814121A3F9002E3121A567409121808E0
:102B5800121A56E50A24F9F9AC0CAD0D85108285D8
:102B680011831232D112076974091217D2E960036E
:102B7800022C06850E82850F83A3A3A3A3A3A3A378
:102B8800E0F89002E2E0687075E0F5148E157814AC
:102B9800121A3F124262850E82850F83A3A3A3A354
:102BA800A3A3A3A31232D112123774021217D2E9C7
:102BB800604C9002E6123300703BE4F5147814126E
:102BC8001A3F7CFF7DFF79078510828511831232B9
:102BD800D11206D374021217D21233067017850E5B
:102BE80082850F831243FF7404121808123CC01226
:102BF8003609022C99850C82850D83122C9CA81805
:102C0800A919881489157814121A3F74041218081F
:102C1800121A56851682851783122F091206077411
:102C2800041217D28A0C8B0DEE4F7003022AE2129F
:102C38002CA6EE122CB11235BFEF122CB1F8A3E07E
:102C48003400F9E50C450D6003022AED888289837A
:102C580074FFF00508122CA674FFF00508E508605B
:102C68001A1313543F122F1912025FE960099002D8
:102C7800E61232D11212AF79008016850E82850FC6
:102C8800831243FF7404121808123CC012392879C1
:102C98000A023592A3A3A3A3E0FEA3E0FF22A8089B
:102CA8009002E6E0281235BF22F00508089002E6F7
:102CB800E0282274E812182C74FA1217BC74021255
:102CC8001808122F137404121808ECF0A3EDF0740E
:102CD80002121808E024051235A8E0F50CA3E0F567
:102CE8000D7402121808E02402F510A3E03400F570
:102CF80011851082F5831232D112038B7508007585
:102D08000900EA24FCFEEB34FFFF8008050CE50C03
:102D18007002050DA808C3EE98EF94005003022E28
:102D2800C5A818A919880E890F780E121A3F85149C
:102D380082851583A3A3A3A3124269121A3FE5143F
:102D48002405F50EE43515F50F780E121A3F851493
:102D580082851583122F071205FB74061217D28A73
:102D68000E8B0FEA450F7003022EC5EA2404F516F0
:102D7800E4350FF517851682F583E0F50CA3E0F529
:102D88000D8518828519831242658A828B83A3A3D5
:102D9800A3E0F98510828511831232D11205E9E981
:102DA800F5096003022EC574021218081235CFF512
:102DB800097809121A43E4F512F5137812121A3F2A
:102DC8007512E27513027812121A3F9002E3121A72
:102DD800567407121808121A56EEF9AC0EAD0F8584
:102DE80010828511831232D112076974091217D221
:102DF800E9F5096003022EC5E508703FE4F50EF514
:102E08000F780E121A3F7CFF7DFF790985108285A5
:102E180011831232D11206D374021217D21235F569
:102E2800700D7404121808122EFC7911022EF990F4
:102E380002E2E024029002E6F080149002E6E0FA52
:102E48009002E2E0790024025001096A497072A8F0
:102E5800089002E2E0FAE82AFAE43400FBEE9AEF7E
:102E68009B405A851682851783E0C0E09002E712DE
:102E78002CABD0E0F00508851682851783A3E0C047
:102E8800E0089002E7122CABD0E0F005089002E2CF
:102E9800124269121A3F124262A80812359C121295
:102EA8002574021217D29002E2E02508F50874FF93
:102EB800650C700474FF650D6003022D14E508604D
:102EC8001F9002E6E0F5F0E50884122F191202655A
:102ED800E960099002E71232D11212AF790080112D
:102EE800E509700375090A7404121808122EFCA962
:102EF80009023592123737E50CF0A3E50DF022A34D
:102F0800A31244F4AA0CAB0D22A3A3EAF0A3EBF09E
:102F1800229002E5F07CE57D0285108285118312FE
:102F280032D52274EC12182C74FC1217BC123A38E1
:102F380074021218221232CB1206018A0C8B0DEA87
:102F4800450D7003023003123013A818A919881010
:102F580089117810121A3F7CFF7DFF790B85088252
:102F68008509831232D11206D374021217D2123194
:102F780009700C850A82850B831236060230108E82
:102F8800828F83A3A3A3A3E0F5127812121A43E455
:102F9800F512F5137812121A3F7512E575130278B7
:102FA80012121A3F7810121A3F7409121808121ACE
:102FB800567409121808E0F9AC0CAD0D8508828525
:102FC80009831232D112076974091217D2E9FE7007
:102FD800157CE57D028508828509831232D11202AB
:102FE8006BE97009802074166E70027E009002E60C
:102FF8001232D11212AFEE7004800B7E01850A8264
:10300800850B83123925EEF902393AEE2402F508C8
:10301800E43FF5092274EC12182C74FC1217BCEA70
:10302800FEEBFF8C0E8D0FEE2405F508E43FF50945
:1030380074021218228508828509831232D1120679
:10304800018A0C8B0DEA450D70030230F9EE24025B
:10305800F50AE43FF50BA818A9198810891178100A
:10306800121A3F7CFF7DFF790D1232CB1206D37402
:10307800021217D2123109700B8508828509831252
:103088003606807A8E828F83A3A3A3A3E0F51278F5
:1030980012121A43850882850983A3A3121A56754A
:1030A80012E57513027812121A3F7810121A3F743B
:1030B80009121808121A567409121808E0F912327F
:1030C800C712076974091217D2E9FE700F7CE57DF3
:1030D800021232CB120271E97009802074166E70E8
:1030E800027E009002E61232D11212AFEE70048016
:1030F8000B7E01850882850983123925EEF902398C
:103108003A123310F510A3E0F511EA45112274E8DC
:1031180012182C74FE1217BC8A168B178C148D1576
:10312800EA2405F50CE43517F50DEA2402F50EE45A
:103138003517F50F850E82F5831232D112038B8A6B
:10314800088B09750B007C037D0079007AE57B020A
:1031580012123D750A00E50814F5100424FFF5085D
:10316800E50934FFF50980549002E5E0FA9002E29F
:10317800E0F8EA28F8E43400F9E50898E5099950F8
:103188000D9002E5E0F8E510C3989002E2F0E0F552
:10319800127513007812121A3F1242629002E6E08A
:1031A8002AFAA3E03400FB12122574021217D290F7
:1031B80002E2E0F89002E5E028F0050A850C828535
:1031C8000D83A3A3123BDC40030232AC9002E5E07E
:1031D800C39508E4950940030232ACAE0AEE2EFE10
:1031E800E433FF1232EBAC18AD1912427DE439FB1F
:1031F8001206018A128B13AC12AD13EC4D701B75BD
:103208000B011232DB1239299002E61228286003DA
:103218001212AFA90B7402023594851682851783A2
:10322800A3A3A3A3E0F50B780B121A43E4F512F558
:10323800137812121A3F7512E27513027812121AD5
:103248003F9002E3121A567407121808121A56A968
:1032580010850E82850F831232D112076974091204
:1032680017D2E9F50B709B9002E612330060030257
:103278003170E4F512F5137812121A3F7CFF7DFFC6
:10328800790F850E82850F831232D11206D374020C
:103298001217D212330660030231701232DB123673
:1032A8000A02321D7CE57D02850E82850F8312326B
:1032B800D1120277E96003023210790002321DACA4
:1032C8000CAD0D850A82850B831232D522E0FAA354
:1032D800E0FB221232EBE0FAA3E0F9EA85148285DA
:1032E800158322850C82850D83E02EF8A3E03FF933
:1032F80088828983229002E3124403E84922123328
:1033080010F8A3E0F9E849229002E6EAF0A3EBF00E
:103318009002E6E02274E812182C74FA1217BC74B2
:1033280004121808122F138C168D1774041218081B
:10333800E02405F50EA3E03400F50F740412180814
:10334800E024021235A81232D112038B8A0A8B0BA1
:103358007F007E00A818A919880889097808121A18
:103368003F850E82850F83A3A3A3A3E0F5088E09EA
:103378007808121A3FE50E2405F508E4350FF5091B
:103388007808121A3F850E82850F83A3A31235D8B9
:103398001205FB74061217D28A0C8B0D8029123580
:1033A800C9F00F1235C9F00F9002E2123914121A3F
:1033B8003F124262EFF812359C121225740212175E
:1033C800D29002E2E02FFFE50C450D70030234585D
:1033D800851882851983123A4AA3A3A3E0F98514B4
:1033E800828515831232D11205E9E9FEE50C240421
:1033F800F510E4350DF511EE70507404121808122A
:1034080035CFF5087808121A43E4F508F509780865
:10341800121A3F7508E27509027808121A3F9002DD
:10342800E3121A567407121808121A56E50A24FAF3
:10343800F9AC0CAD0D8514828515831232D11207B3
:103448006974091217D2E9FE60391235E512392874
:10345800EF700302357F9002E6E0F5F0EF8490020A
:10346800E5F07CE57D028514828515831232D11240
:10347800027DE960099002E71232D11212AF790099
:103488000235928F08EF703BE4F512F513781212AB
:103498001A3F7CFF7DFF79118514828515831232CE
:1034A800D11206D374021217D21235F570091235EB
:1034B800E51236090235929002E2E024049002E611
:1034C800F080359002E2E0F89002E6E0FAE82404A1
:1034D800FCE43400FDEC6A4D600302345EE50A2426
:1034E800FAFAE50B34FFFBE50828F8E43400F9EABA
:1034F80098EB99500302345E851082851183E0C0F1
:10350800E09002E7E02FF8A3E034008882F583D04A
:10351800E0F00F851082851183A3E0C0E01235B674
:10352800D0E0F00F7402121812880889097808127E
:103538001A3F7402121808121A56850E82850F83D4
:10354800122F0712060774041217D28A0C8B0DEA81
:10355800450D70030233A67402121808E0C0E01289
:1035680035B6D0E0F00F7402121808A3E0C0E012DC
:1035780035B6D0E00233AEEE70027E0A850E828543
:103588000F831235EB123928EEF974061217D27F21
:10359800100218FE9002E7E028FAA3E03400FB22AC
:1035A800F514A3E03400F515851482F5832212354D
:1035B800BA229002E7E02FFAA3E034008A82F5836A
:1035C800221235BA74FF22123737A3A3A3A3E0222D
:1035D8001244F4850E82850F831232D5228510821B
:1035E800851183124403851682851783229002E78A
:1035F800EAF0A3EBF09002E7124403E849221239FB
:103608002EE8F0A3E9F079112274EA12182C74FE5E
:103618001217BC8A088B098C128D13EA2405FEE464
:103628003509FFAC18AD198E828F831232D112067C
:10363800018A0C8B0DEE2406F50EE43FF50FEA45E2
:103648000D7003023709E5082402F50AE43509F587
:103658000B8A828B83A3A3A3E0A2E5502885188256
:103668008519831232D112075D8A108B11EA451130
:10367800602079121232C785108285118312182AA8
:10368800E9F50C707F850E82850F83E06009795219
:103698008011750C0E806D850882850983A3A3A30C
:1036A800A3E0F9E4F508F5097808121A3F8E828F2D
:1036B80083A3A3E0F5087808121A3F8E828F83A3AC
:1036C800A3A3121A568E828F831242651232CB122E
:1036D800076F74061217D2E9F50C7011850E8285F2
:1036E8000F83E0702D1232CB120283802574166589
:1036F8000C7011750C007418121808123733E48016
:1037080010750C011243FB851282851383E8F0A320
:10371800E9F0850E82850F83E0600479008002A9B4
:103728000C74021217D27F0E0218FE12373722E0ED
:10373800F8A3E0F58388822274EC12182C74F7122F
:1037480017BC8A0A8B0B8C108D11EA2405FEE43510
:103758000BFF750C00AC18AD198E828F831232D115
:103768001206018A088B09EA450970030238FFE549
:103778000A2402F50A5002050B8A828B83A3A3A3AD
:10378800E0A2E5502F8518828519831232D11207DD
:103798005D8A0C8B0DEA450D604F7912AC08AD09B6
:1037A8001232CB850C82850D8312182AE9F50C603C
:1037B80003023902850A82850B83E0F508A3E0F548
:1037C80009AA08FB120751EA4B70197AFF7BFF120E
:1037D8000751EA4B70030238F58A828B83E508F0BB
:1037E800A3E509F07508008008750C0E023902057A
:1037F800089002DFE0F8E508C39840030238F58531
:10380800080E750F007403780E1217A98A828B832D
:10381800A3A3E0250EF8A3E0350F123CC970D08EA3
:10382800828F8312391D122F138E828F83A3A312C6
:10383800391D122F11EE2404F508E43FF509850817
:1038480082F583E088828983A3A3A3A3F0A3E4F08D
:10385800EE2405F50EE43FF50F850E82F583123947
:103868001DA3A3A3A3122F117512077513007812B5
:10387800121A3FEEFCEFFD740412181A1212257486
:10388800021217D2E4F5127812121A3F85088285BF
:103898000983E0FC7D0079171232CB1206D374023B
:1038A8001217D27407121808122F13740712180867
:1038B800E0FA4B603D850882850983123914121A93
:1038C8003F850E82850F83124265121225740212FB
:1038D80017D274021218221232CB120289E960261A
:1038E80074071218081232D11212AF8019750C0918
:1038F8008008750C118003750C011243FB8510823A
:10390800851183123928A90C74098028E0F50875F7
:1039180009007808221232D5888289832212392E2A
:10392800E8F0A3E9F022E0F8A3E0F9850E82850F1C
:10393800832274041217D27F0C0218FE74EC12183A
:103948002C123A38751000EE2402F50CE43FF50D00
:10395800850C82F5831232D11207518A088B09EA45
:1039680045097003023A1C850A82850B83E06401CD
:103978006003023A11AC08AD09AA0AAB0B1207455D
:10398800E9606E850882850983122C9EEE2406F56F
:103998000AE43FF50B8E828F83A3A3121A568E82F8
:1039A8008F83A3A3A3A3121A56850A82850B8312B9
:1039B8001A5679188E828F83123A4A1232D1120718
:1039C8006F74061217D2E9F8741668700B850A82AC
:1039D800850B83E4F0A38014E860128E828F831233
:1039E80032D1850E82850F83EAF0A3EBF088108030
:1039F80018780E121A3FAC08AD09EEFAEFFB120761
:103A08004B74021217D2E9F510AA08AB091207572E
:103A1800E510700E850C82850D831232D112028F4B
:103A28008009741665107003751000A91002393FDB
:103A3800EAFEEBFF8C0E8D0FEE2405F50AE43FF548
:103A48000B221244F4850C82850D832274EA121825
:103A58002C7508007509007E007F00750A00EC24AB
:103A680002F510E43DF5118035EC65087003ED654D
:103A7800096003023B0988828983A3A3E06A700373
:103A8800A3E06B707C88828983A3A3A3A31243FF5E
:103A9800EE28FEEF39FFEA28FAEB39FB050A123B5C
:103AA800D9503A850A0C750D007403780C1217A9C1
:103AB800851082851183123BCC123CC9601FE50832
:103AC800450970A58C088D0988828983122C9C88E9
:103AD800828983A3A3E02EFAA3E03F80BEE50AC350
:103AE80094025003023BC7750800750900EE4F6049
:103AF80010EEFAEFFB1212A98A0E8B0FEA450F702F
:103B0800057900023BC9750B00023B9C850B0C75BF
:103B18000D007403780C1217A9851082851183E0B3
:103B2800250CF50CA3E0350DF50DE50C2406F51470
:103B3800E4350DF515851482F583123CCE6042E517
:103B48000C2404F512E4350DF513851282F5831261
:103B58001A56E50E2508FAE50F3509FB12122574E9
:103B6800021217D2851282851383E02508F508A36F
:103B7800E03509F5098514828515831232D11212B0
:103B8800AFE50B600D7C087D007900AA0CAB0D1227
:103B9800123D050BE50BC3950A5003023B14851033
:103BA800828511831243FF88828983A3A3A3A3A3D9
:103BB800A3E50EF0A3E50F12282FEEF0A3EFF0799E
:103BC8000102372E123BD022E0250CF8A3E0350D78
:103BD800229002DFE0F8E50AC3982274F012182C4C
:103BE8008A0E8B0F8C0A8D0B750D00750C0080509A
:103BF8007916EE2406F508E43FF5098E828F83A333
:103C0800A3121A568E828F83A3A3A3A3121A5685D2
:103C18000882850983121A56850E82850F83A3A30D
:103C28001232D112076F74061217D2E9F50D741605
:103C3800650D706C850882850983E4F0A3F0050C96
:103C48009002DFE0F8E50CC3985066AA0C8A087564
:103C58000900740378081217A9850A82850B83A3C3
:103C6800A3123D18E8FEE9FF8E828F83123CCE60D6
:103C780040EA2401F508E43400F5099002DFE06524
:103C8800087002E509601488828983A3A3A3A3A30B
:103C9800A3A3A31233006003023BF87918023BFA8E
:103CA800E9609B1243FB7410121808123CC01239C9
:103CB80028A90D7F080218FEE0FAA3E0F5838A829E
:103CC80022F9888289831244F4EC4D2274F6121882
:103CD8002C7C0080010C90033BE0F8ECC398501E4C
:103CE8008C08750900740278081217A9123D0DE0B6
:103CF8006A7003A3E06B70DDE8FAE9FB80047A00E0
:103D08007B00023DB09002DD123D18888289832233
:103D1800E02508F8A3E03509F92274F212182C8A74
:103D2800088B09750A0080278E828F83A3A3A3A31B
:103D380012282660031212AF7C087D007900EEFA83
:103D4800EFFB12123D8E828F83E4F0A3F0050A1276
:103D58003BD95027850A0C750D007403780C12178F
:103D6800A9850882850983A3A3E0250CFEA3E03575
:103D78000DFF8E828F8312330070AD85088285090E
:103D88008374FFF0A3F00244E874F612182C1207AB
:103D9800038A828B83E582458370067A007B0080E4
:103DA80007A3A3A3A31232D17F020218FE74F41250
:103DB800182C89088C828D83E06402703C12439E23
:103DC800FEA3E0F9EEF8740268700374296970299B
:103DD800750A02750B00780A121A3F741012180837
:103DE800121A567410121808121A56A9081210AB93
:103DF80074061217D2E9F98002790102286374E87F
:103E080012182C74FB1217BCE9851882851983F0E7
:103E18008A168B17ECFEEDFF7510008E828F83A338
:103E2800A3A3E0A2E4502D741D1218081232D11277
:103E3800075D8A828B83E5824583700302423D7960
:103E48000AEEFCEFFDAA16AB1712182AE9F5106066
:103E580003024240741F121808E0F508A3E0F509B0
:103E68007421121808E0F50AA3E0F50B7423121860
:103E780008E0F50EA3E0F50F8E828F83E064026000
:103E8800030241DEA31243FF850882850983A385C7
:103E98008212858313EE2406F50CE43FF50D888223
:103EA800898312427DF514E439F5157814121AC97C
:103EB800010000280128E03E07000228A53F03284A
:103EC800133F0029D4400129FF400229A0400329BB
:103ED800D44004297841DE41E50E450F60030241D4
:103EE800D9850C82850D831243FFE8FAE9FB8A82A3
:103EF8008B83E0850A82850B83124288121A3F8AD7
:103F0800828B83A3E0FCA3E0024162E50E450F60CB
:103F1800030241D9850A82850B837401F01242722B
:103F2800850882850983F07C007D008E828F83A3BB
:103F3800A3A3A3E02401FAA3E03400FB120601EADC
:103F48004B60408A828B83E02402F8850A82850BC5
:103F580083E028F0EA2404F8E43BF988828983E0C6
:103F6800851282851383124296124288121A3F8A5A
:103F7800828B83A3124265E5082403FAE43509FB22
:103F8800024167850A82850B83E02404F07C047D66
:103F9800007900AA12AB1312123D024240E50E4509
:103FA8000F60030241D9124272FEA3E0FF850A8224
:103FB800850B837404F0EE850882850983F0EF850C
:103FC8001282851383F07403121822EEFAEFFB12A3
:103FD80006018A0C8B0DEA450D70030240838A8224
:103FE8008B83A3A3122C9C7401121812880E890FBC
:103FF800780E121A3F7405121808121A567CFF7DA3
:10400800FF12060774041217D28B0FEA450F70339C
:10401800850C82850D83124269121A3F850C8285B0
:104028000D83A3121A567C027D007A157B84120335
:104038007974041217D2E9700A740112180874FF0F
:10404800F0A3F08E828F83E064027039750C0275DC
:104058000D00780C121A3F8E828F83A3124265E5F9
:10406800082404FAE43509FB12122574021217D247
:10407800850A82850B83E0240280097401121808DE
:10408800EEF0A3EFF07401121808124257740112EF
:10409800180812424E0241D3E50E450F6003024153
:1040A800D9850C82850D831244EDAA16AB17121020
:1040B800B1850A82850B837402F08508828509839D
:1040C800EAF0851282851383EB0241D6E50E450F8F
:1040D80060030241D9124272F8A3E0F9850A828589
:1040E8000B837402F0E8850882850983F0E985125C
:1040F800828513830241D6850C82850D831232D1C5
:1041080012121FEAFAF8C3950EE4950F405CE865B1
:104118000E450F70047A008021851882851983E086
:10412800FCE50E2CFCE4350FFDC3EC98ED94005033
:1041380003E08005E50ECAC39AFAEA850A82850B70
:1041480083F08A0A750B00780A121A3F850C82855B
:104158000D83E0250EFCA3E0350FFDAA08AB09127C
:10416800122574021217D20242407510070242400B
:10417800E50E450F705B850C82850D831243FF8524
:104188000A82850B837407F08882898312424F1252
:104198004247E0851282851383F0E82402FAE43965
:1041A800FB8A828B831242578A828B8312424EA3E8
:1041B800A312282E12425CF0E82405F85001098861
:1041C80082898312425CA3124296A3A3A3A3F08020
:1041D8006775100B8062741D1218081232D112070D
:1041E800038A828B83E5824583604A1243FF880CE9
:1041F800890DE8450D603E7425121808E0F5107821
:1042080010121A43780E121A3F780A121A3F7808C9
:10421800121A3F7407121808E0F9EEFCEFFDAA160F
:10422800AB17850C82850D8312182A74071217D2D2
:10423800E9F510800375100EA9107405023594F085
:1042480088828983A322A3E08508828509832212B4
:10425800429DF02212429DA3A3229002E31244F44D
:1042680022E0F50E750F00780E22850C82850D83ED
:10427800123737E022E0FAA3E0F8E4C8F9EA282286
:10428800F08A828B83E0F50A750B00780A221242C5
:104298004712429D22E0850882850983A3A32274E0
:1042A800EE12182C74FE1217BC8A088B09ECFEED6E
:1042B800FF890AAC18AD19EEFAEFFB1206018A0C59
:1042C8008B0DEA450D700302438F8518828519838B
:1042D8001232D11207038A828B83E58245837003E9
:1042E80002438AA3A31243FF880E890FE8450F7083
:1042F8000302438A7414121808E0F510A3E0F511BC
:10430800E50AF50B780B121A437419121808121AD9
:10431800567810121A3F741B121808E0F9AC0CAD4D
:104328000DAA08AB09850E82850F8312182A740519
:104338001217D2E9F50B705274FE650A604C850CB1
:1043480082850D83E06402704112439EFAA3E0F96E
:10435800EAF87402687003742969702E85108285E2
:10436800118312427DF50CE439F50D780C121A3FD1
:10437800EEFCEFFDAA08AB0912078774021217D2E8
:104388008008750B0E8003750B01A90B74021217B8
:10439800D27F0A0218FEA312440388828983E0228E
:1043A80074F612182C74FE1217BC740C121808122A
:1043B80043FFE8851882851983F07401121808E90B
:1043C800F0E4F508F5097808121A3F75080278082C
:1043D800121A3F7404121812880889097808121AE8
:1043E8003F79FE12076F74061217D274021217D2A1
:1043F800023DB08E828F8312440322E0F8A3E0F9D5
:104408002274F712182CEAFEEBFF89089002FA12C0
:1044180042651210B1EA5402600BA908EEFAEFFBEC
:104428001205F5800279017F010218FE74F2121854
:104438002C74FE1217BCEAFEEBFF890A7401650AA8
:1044480060147402650A60030244E3790112097377
:10445800E960030244E3EEFAEFFB120751EA4B600E
:1044680003120757A818A919880889097808121A81
:104478003F7508027509007808121A3F75081F75FC
:1044880009847808121A3F7CFF7DFF7A017B0012AD
:1044980005FB74061217D28038850882850983A324
:1044A800A3A3A3A3A31244EDEEFAEFFB1210A5E415
:1044B800F50CF50D780C121A3F7402121808121A2E
:1044C800567CFF7DFFAA08AB091206077404121771
:1044D800D28A088B09E508450970BE74021217D202
:1044E8007F060218FE1237371244F422E0FCA3E0DC
:1044F800FD2274F412182C8A088B09ECFEEDFF904B
:104508001D48E0F4604B7A097B0012124FEA4B60B9
:10451800408A828B8374B1F0A3E412455CF08A82EE
:104528008B83A3A3E508F0A3E50912455CA3EEF08D
:10453800A3EFF0740C1218081243FF8A828B83A32E
:10454800A3A3A3A3A3A3123928901D48E0F912122C
:104558005B022863F08A828B83A3A3A3A322C08271
:10456800C0839061907404F0A37448F0A37402F0BF
:104578009061807440F09061BC7403F0906187741E
:1045880019F0906265741BF0906249E0C39413902F
:10459800619C40107409F09060667401F090619F0E
:1045A8007428800D740BF0906066E4F090619F743D
:1045B8002CF01247517009C29190036D7467800501
:1045C80090036D7461F01247A3902548E493F4605A
:1045D80006E493F9120A697905120D810249E5C0CA
:1045E80082C083E9540FF9906185E0696012E5C6DD
:1045F80054B84441F5C6E59E5447644170F8E9F063
:1046080053C6B8E59E544770FA0249E5C082C08394
:10461800A8A853A87E906181E4F0A3F0A3F0C2BAE1
:10462800539AFEC289759B00C2C275E90075910054
:1046380075BF0075A91175B905906181F0A374C0A3
:10464800F0A3E4F0D2BA439A0174805842A8024910
:10465800E5F00249E5C082C08374F81217BC9003E4
:104668006B125D63700302474990036BE05440602E
:10467800177908AA18AB19120B77AA18AB191207E1
:10468800E790036BE054BFF0E054806010790C7A37
:104698001C7B07120B7790036BE0547FF0E0A2E0DD
:1046A800501E1247517009C29190036D74678005BE
:1046B80090036D7461F01207ED90036BE054FEF007
:1046C800E05402601E1247967009D29190036D74EF
:1046D80071800590036D746AF01207ED90036BE02A
:1046E80054FDF0E05404601090254C1247A61207C0
:1046F800F390036BE054FBF0E05408601090254DF4
:104708001247A61207F390036BE054F7F0E0541039
:10471800600D1247A31207F390036BE054EFF0E02B
:104728005420600A1207F390036BE054DFF0A3E013
:104738005401600D120A871207F990036CE054FEC9
:10474800F074081217D20249E590619A12499890BC
:1047580006F6E0640122C082C083E9600514601790
:1047680080291247517009C29190036D7467801AAD
:1047780090036D746180131247967009D29190036B
:104788006D7471800590036D746AF00249E590615B
:104798009A12498A9006F6E064012290254EE49325
:1047A800906186F02274EA12182C74F41217BC90E7
:1047B80083B2AC18AD1974041216CF90254C93F43B
:1047C800600302491F907808E0C39402500302492D
:1047D80003908339740412182274081216CFA8188B
:1047E800A91988148915740412181288088909AE41
:1047F80008AF097510FF7511FF750EFF7C00750C69
:1048080048750D78801274086C7003024899740911
:104818006C607E740A6C6079850C82850D837808DB
:104828001216748E828F83A909E50AC9F888127452
:1048380018780812158FE5124508F8C3E098A3E028
:1048480099850C82850D83780812167440188E821B
:104858008F837418780812158FE5124508F8E0C39D
:1048680098F8A3E0801A7418780812158FE5124595
:1048780008FAE9FB8E828F831250BAEAC398F8EBE4
:1048880099F9C3E89510E995115006881089118C9B
:104898000E0CE50C2404F50C5002050DECC3941322
:1048A800500302480E74FF6510700474FF651160B0
:1048B80024850E08740278081217A974482508F58B
:1048C8008274783509F58378081216748514828500
:1048D8001583E508F0EE2402FE50010F8514828549
:1048E8001583A3858214858315740C121808E58234
:1048F8006E7003E5836F60030247FB750801750955
:10490800007808121A3F74021218227A537B09128F
:1049180010FF74021217D2740C1217D27F0E0218ED
:10492800FEC082C0839061AE7468F0A3746AF09090
:10493800624574FBF0A304F053F4FD43FE029006B5
:10494800F67401F09061A0E0643A90619A701912CF
:104958004998740164017009C29190036D7467806D
:104968001E90036D7461801712498A740164017086
:1049780009D29190036D7471800590036D746A0279
:104988004659743FF0A3745AF09061A0747FF022E6
:104998007433F0A37455F09061A0743AF0227F0448
:1049A8000218FEC082C0839006D4E06401701190A2
:1049B80006DAE064016019E07006A3E064016010A3
:1049C8009006EBE06401700C9006F1E0640170045D
:1049D800790C800279008005E0F91223C3D083D0D6
:1049E8008202011FE0C4333354C0228882898312B3
:1049F8004F7BA882A983222414F582E438F5832208
:104A0800C082C0839006DE7425F09006DC7401F045
:104A1800A3E4F07A01FB120CFD124A54241AF58221
:104A2800E438F58374ABF0A3740AF09006DBE06415
:104A38000170169006DAE070107901120D5D120D02
:104A48002D120D577900120D690249E59006CA1218
:104A58004DDD2274F612182C74FA1217BC9006D386
:104A6800E064017008120A939006D3E4F075E1F14E
:104A7800124A542415F582E438F5837401F090063F
:104A8800D5E06401704B908351AC18AD19740612CF
:104A980016CF75D90D9006CC1249EC4403F5D9759B
:104AA80082CD758306124F77E58264D37004E5835F
:104AB800640670F1A818A9191249F37406121808A7
:104AC800E582687003E5836970EE75E19579018088
:104AD800027900120D03901D6C124B417413F0A360
:104AE800740CF0A3124B41124B41124CAF7419F0E5
:104AF800A3740C124CC49006CCE0F97ACD7B061254
:104B08000CDF9006DEE0F91223C37901120D09903B
:104B180083A2121692120D21908382121692120C01
:104B2800EB7900120D75124A541249FF7416F09071
:104B380003697405F0040251DC740DF0A3740CF0E1
:104B4800A32274F712182C8908A808E875F00DA498
:104B5800C8AAF02AF9749928FE740339FF9006E36D
:104B6800E0F97AE47B06120CDF9006F1E070257913
:104B780000120D3FEE240CF582EF3401F583E0704E
:104B880004790080027901EE2406FAEF3401FB1261
:104B98000CE580057901120D3F75E1F175D9239077
:104BA80006E31249EC4405F5D97582E475830612CB
:104BB8004F77E58264EA7004E583640670F175D97D
:104BC8000075D90075D90075D90075D90075D90057
:104BD800EE242212503012504F7003E9658370F6AC
:104BE800EE242612503B2403F8E43583F912504F83
:104BF8007003E9658370F6EE242B125044242C12BE
:104C08005044242D125044242E125044242F125064
:104C18004424301250442431125044243212504457
:104C28002433125044245D12503B2405F8E43583A4
:104C3800F912504F7003E9658370F6EE2437125B62
:104C4800E2541FF8EE242A125BE2C43354E048F51C
:104C5800D975E195901D6C74DDF0A3740BF0A37405
:104C6800E3F0A3740B124CA674E9F0A3740B124C76
:104C7800C49006F0E0F91223C39083A21216921290
:104C88000D21908382121692120CEB90600DE4F0C5
:104C98007901120D759003697406F0025418F0A397
:104CA800124CAF124CAF22124CB32274D7F0A3743B
:104CB8000BF0A374D7F0A3740BF0A322124CC822F4
:104CC800F0901D7A124CD4A3124CD422124CB37417
:104CD800D7F0A3740BF02274EC12182C9006E11292
:104CE800583878101216749006F2E0FAF875F00D3C
:104CF800A4C8ACF02C1259B4FFEE2EFEEF33FF8E91
:104D08000CF50D750E00750F0085100885110985C5
:104D1800120A85130B9083BE78081215DA780812E8
:104D28001A3B85100885110985120A85130B780826
:104D3800790C1215C77810790C12150FE4F50EF5D9
:104D48000F7808790C1216008A0C750D0074037818
:104D58000C1217A97808790C1215C790837E780869
:104D680012163BAA08AB09AC0AAD0B12235B7404FC
:104D78001217D28A088B09A808A909C3EE98EF99D7
:104D88005006E82EF8E93FF9E890600EF0E9A3F044
:104D9800EEA3F0EFA3F090600D74C1F07F0C021841
:104DA800FEC082C0839006CA124DC99006DE024931
:104DB800E0C082C0839006E1124DC99006F0024916
:104DC800E0124DDD124DD3F0A3F0222406F582E463
:104DD80038F583E422E0F8A3E0C82202011F74F644
:104DE80012182C124F806004780480027800E8249E
:104DF8000EF8ECC3985003024EB47C0C9006FCE409
:104E0800F0EA2476F582E43BF583E09006FDF0EACB
:104E18002477124EB99006FE124EC39006FFF0EAB0
:104E28002479124EB9900700124EC3900701F0EA98
:104E3800247B124EB9900702124EC3900703F0EA82
:104E4800247D124EB9900704124EC3900705F0EA6C
:104E58002474F8E43BF98A828B83A3A3A3A3A3E079
:104E6800FEA3E0FF88828983E02EF0A3E03F12557D
:104E780056900706124EC3900707124FA460177585
:104E880008FC7509067808121A3F7903120BCB74CF
:104E9800021217D27C101251EAECFE124F77DEFB99
:104EA80075E1957904120D27790180027900025184
:104EB800DFF8E43BF988828983E02212555BA3E09E
:104EC8002274F612182C124F80600478048002783D
:104ED80000E8240AF8ECC3985003024F727E089049
:104EE80006FC7401F07CC07D0678FD79067F05120A
:104EF8004F8EA882A983DFF7EA2480FCE43BFD8A71
:104F0800828B83A3A3A3A3A3E0F508A3E0F5098CF0
:104F1800828D83E02508F0A3E03509F0124F8E0852
:104F2800A9838C828D83E088828983124FA46019BB
:104F38007508FC7509067808121A3F7C087903126F
:104F48000BCB74021217D27E0C74012EF5D975D9C9
:104F5800037582FC758306EEFF124F77DFFB75E160
:104F6800957904120D277901800279000251DF1228
:104F78004F7B22E0F5D9A3229061D0E0F87480C37A
:104F880098FC124FA922124F92228C828D83E088BE
:104F9800828983125DA088828983A322F0124FA997
:104FA80022EA2483F582E43BF583E02274F71218A1
:104FB8002CEAFEEBFF9061D0E0706875D91875D9BE
:104FC8000375D903EE249C12505612504F7003E912
:104FD800658370F6EE24A412504424A5125044248C
:104FE8009412505612504F7003E9658370F6EE2400
:104FF8008812503012504F7003E9658370F675E1DE
:10500800957908EE2494FAE43FFB120B6B7904EED1
:105018002488FAE43FFB120B6B7904120D27125116
:10502800648002790002541812503B2404F8E435D5
:1050380083F922F582E43FF583E58222F582E43F95
:10504800F583E0F5D9EE22124F7BE86582221250F3
:105058003B2408F8E43583F92274F612182CEAFE8A
:10506800EBFF9006FC740612510D121A3F7C017971
:1050780003120BCB74021217D275D90675D90375B2
:1050880082FC7583061251057004E583640770F588
:1050980075E195900369E064087010EE246FF5825D
:1050A800E43F1250B8EE2471125B7179010251DFAE
:1050B800F583125D6F2274F612182CEAFEEBFF904E
:1050C80061D0E070339006FC740A12510D121A3F39
:1050D8007C017903120BCB74021217D275D90675AD
:1050E800D9037582FC7583061251057004E5836443
:1050F8000770F5125161800279000251DF124F7B6F
:10510800E582640122F07508FC75090678082274A6
:10511800F612182CEAFEEBFF9061D0E070367801A9
:105128009006FC740BF0900369E064077019750829
:10513800FC7509067808121A3F7C017903120BCB1B
:1051480074021217D278051253AC124F77DAFB1299
:105158005161800279000251DF75E195EE246F12EA
:105168005D69EE2471F582E43FF583E8F0A3E9F088
:1051780079012274F612182C1252AD60047804805A
:10518800027800E8240BF8EAC39840447C099006AA
:10519800FC74081251F9125208DDFB125BDF601B28
:1051A8007508FC7509067808121A3F7903EEFAEFBC
:1051B800FB120BCB74021217D27C0D1251E412525F
:1051C800A570FB75E1957904120D271251648002D0
:1051D800790080031217D27F020218FE1251EA8C5E
:1051E800082274012CF5D975D9037582FC758306DC
:1051F80022F0EE24E5F8E43FF97AFD7B067D0822EB
:1052080088828983E08A828B8312555BA3A882A94E
:10521800838A828B83A3AA82AB832274F612182C0A
:105228001252AD6004780480027800E82408F8EA95
:10523800C398406478069006FC740CF0900386E0EE
:105248009006FDF0900387E09006FEF0900388E05A
:105258009006FFF0900389E0900700F090038AE041
:1052680090070112533C601B7508FC750906780805
:10527800121A3F7C067903EEFA120BCB740212174E
:10528800D2780A1253361252A570FB75E19579044B
:10529800120D27125164800279000251DF124F7BF0
:1052A8001508E50822EAFEEBFF9061D0E0F874806B
:1052B800C398FA1253412274F612182C1252AD6098
:1052C80004780480027800E82404F8EAC398404B84
:1052D80078029006FCE8F0EE24F7125BE29006FDF7
:1052E80012533C601B7508FC7509067808121A3FB2
:1052F8007C027903EEFA120BCB74021217D27806ED
:105308001253361252A570FB75E195125328790491
:10531800120D27EE240D125167800279000251DF29
:10532800EE241DF582E43FF583E4F0A3F022125346
:10533800B2880822F012534122EE2483F582E43F1A
:10534800F583E02274F612182C124F80600478045A
:1053580080027800E82404F8ECC398404278029070
:1053680006FC7407F0EA24F8F582E43BF583E09044
:1053780006FD124FA460197508FC75090678081215
:105388001A3F7C027903120BCB74021217D27806EB
:105398001253AC124F77DAFB75E1957901800279E7
:1053A800000251DF1253B2E8FA22740128F5D975C8
:1053B800D9037582FC7583062274F712182CE9FF4D
:1053C800A2AFE433FEC2AF7C0080010C12546950D6
:1053D80010ECF8EA28F8E43BF9125ACD6F70EC802B
:1053E80016EA246EF8E43BF9E0FCEA2CFAE43BFB0D
:1053F800125406EF125550EEA2E092AF8012EA2442
:105408006AF582E43BF58322F0EEA2E092AF7900E0
:105418007F010218FEC082C083A2AFE433FDC2AF91
:1054280012547114F07C00801DECF8EA28F8E43B73
:10543800F9E8246B125AD0C0E0E8246AF582E4390E
:10544800F583D0E0F00C12546940DEEA246DF58251
:10545800E43BF58374FF125496EDA2E092AF024943
:10546800E5125471F8ECC39822EA246EF582E43B05
:10547800F583E022C082C083A8A8C2AF125406E90F
:10548800125496E8A2E7E433FAE8A2E780CEF0EAFD
:105498002469F582E43BF583E4F02274F312182CB6
:1054A800EAFEEBFFECFAEDFB8A828B83A3A3A3A3AE
:1054B800E0541FF0EE2436F582E43FF583E4F075FE
:1054C8000A00EE245DFCE43FFD8A828B83E08C8237
:1054D8008D83F0750B00E50A33333354F8F50C8AE5
:1054E800828B83E0F508750900E50B780812178AA6
:1054F800E508A2E05027EE2436F8E43FF9888289CF
:1055080083E0F508EE2508F508E43FF509E50824E9
:1055180038F582E43509F583E50C125550050B057D
:105528000CE50BC3940840B7050A8A828B83A3AAAB
:1055380082AB838C828D83A3AC82AD83E50AC3944E
:105548000540867F050218FE12555604F0221255B2
:105558005BE022F0888289832274F712182C90036A
:1055680095E0640370030256FE7C0075829B758388
:1055780003E060030256E8ECF875F00DA4C8AAF041
:105588002AF9749928FA740339FB8A828B83A3A3B6
:105598007401125720E4F0EC8A828B83A3A3A3A39F
:1055A800F0125CEA7401F0EA2467F582E43BF583C3
:1055B800740112571AE4F0A312571AA3A312573012
:1055C800240FF582E43BF5837401F0EA2435125781
:1055D800052418125735241C125705241D12572963
:1055E800247F125705247312570524821257052465
:1055F80068F582E43BF5837480125496EA246E12AF
:10560800570524ED12570524EE12570524EF1257BB
:105618000524F012570524F112572924F3125729AB
:1056280024F6125705248312570524D3125705244C
:10563800D412570524D512573524D912573524DFEB
:1056480012570524E112570524DD12570524E212EA
:10565800570524E312570524F912572924FB12573A
:105668002924FD12572924FF125729240C12570FF9
:10567800240612570F240712570F240812570F2415
:105688000912570F240A12570F240B12570F1254DE
:105698000774FF7804F0A3D8FCEA245DF8E43BF92A
:1056A8007CC07D0612574964C57003ED640670F42A
:1056B800EA24E5F8E43BF97C7D7D031257496485CB
:1056C8007003ED640370F4900395E004F0640170D6
:1056D800298A828B83A3A3A3A3E0900397F0801A5F
:1056E8000CE582240DF582E5833401F583ECC3943F
:1056F8000350030255797A007B00025418F582E4BE
:105708003BF583E4F0EA22F582EB3401F583E4F01B
:10571800EA22125720A3A322F08A828B83A3A3A391
:1057280022F582E43BF583E4F0A3F0EA22F582E473
:105738003BF583125740EA22E4F0A3F0A3F0A3F06C
:1057480022124F92A882A983EC22C082C0838A8247
:105758008B83A3A3A3E0600F8A828B83A3A3A3E414
:10576800F0900396E014F0900395E014F070069022
:10577800039774FFF08A828B83A3A3E4F09006C595
:10578800E0700D900396E0640170057900120CF149
:105798000249E5C082C083789B790388828983A304
:1057A800E412555BF012599EE864C27003E964067E
:1057B80070E9900395E4F0A3F0A374FFF075E1F1AC
:1057C8000249E574F512182C750800750900750A68
:1057D800007E997F038E828F83A3A3A3E0602BE5CD
:1057E800084509601D850882850983125838121AF0
:1057F800521258341216921222FF74041217D2E968
:105808007008EEF8EFF988088909050AEE240DFEFC
:10581800EF3401FFE50AC3940340BA85088285097D
:1058280083A3A3A3A3E0F97F030218FE8E828F83CC
:10583800125D0DA3A32274EE12182C8A0A8B0B8C0E
:1058480008890C900396E0F8E9C39850627AFF7BC8
:10585800FF7C007899790388828983A3A3A3E060F9
:105868003F74FF6A700374FF6B700CE82473125A5C
:10587800D0640170218012E82473125AD064017038
:105888000DE824791259A75017E82479800BE824E9
:105898002E1259A7500AE8242E125AD0FAA3E0FB78
:1058A8000C12599EECC3940340ADEAFEEB8018E954
:1058B8006010A3E0F875F00DA4C8AAF02A1259B434
:1058C8008005EA2AFEEB33FF8E0E8F0F7403780EE5
:1058D80012179A900396E0F8C3E50E98E50F940026
:1058E800500302598AE50A25E0F50AE50B33F50B62
:1058F800E50825E0F508ED33F509AC0AAD0B80079E
:10590800EC2402FCE43DFDC3E5089CE5099D4060EC
:10591800C3EC9EED9F403FECF8EDF9EEFAEFFB1279
:1059280017318B0FEA450F60068E0E8F0F800675B4
:105938000E00750F00ECF8EDF9EEFAEFFB121731D7
:105948008A108B11EC9510F8ED9511F9E8250EFCED
:10595800E9350FFD801AE0F8E50CC3985012EEF80F
:10596800EFF9ECFAEDFB1217318B0FEA450F709047
:10597800C3EC950AED950B4009C3E5089CE5099D24
:1059880050067AFF7BFF8009ECFAEDC313FBEA139C
:10599800FA7F0A0218FEE8240DF8E93401F922F525
:1059A80082E439F583C3E09AA3E09B22F974C728FF
:1059B800F582740339F583E0FEA3E02274F6121829
:1059C8002C74FC1217BCEAFEEBFF8044EE2463F84B
:1059D800E43FF97A007B00A2AFE433F508C2AF8850
:1059E800828983E0FCA3E0FDEC4D600F125D287016
:1059F8000A88828983A3A3E4F0A3F0E508A2E092D1
:105A0800AF1212AF9006C6E004F09006C7E004F0AB
:105A1800EE2463F582E43FF583125D6370AE900671
:105A2800C7E060358E828F83A3A3A3A3E085188285
:105A3800851983F0A3E4F09006C7E0F87402121801
:105A480008E8F0A3E4F07402121822AA18AB197936
:105A5800011208599006C7E4F0EEFAEFFB120B1793
:105A6800EEFAEFFB120C4F74040251DC74F71218B3
:105A78002CEAFEEBFF8E828F83A3A3A3A3E0FA7B1D
:105A88000012082FEEFAEFFB120B2F120C31025402
:105A980018C082C0837A007899790388828983A3A1
:105AA800A3A3E06011E8246E125AD06009125ACDFF
:105AB80070047901800C0A12599EEAC3940340DBF2
:105AC80079000249E5E8246AF582E439F583E022A1
:105AD800C082C083E490037D7808F0A3D8FC9003CB
:105AE8007D0402465974F712182C74FC1217BC85F1
:105AF8001882851983125740120B71E9851882851F
:105B08001983F0120B717401121808E9F0120B7165
:105B18007402121808E9F085188285198312169202
