:020000040000FA
:0600000002010702215578
:03002B000223D1DC
:030033000223B3F2
:03003B000223EBB2
:030043000223672E
:030053000221CBBC
:03006B0002238DE0
:10008300021FABE5C754F84401F5C779012200000C
:100093000080FB120086B900030200F1E4791A78AC
:1000A30002B800028004F709D8FCE4791C7802B88E
:1000B30000028004F709D8FCE4900281781A791BC6
:1000C3008002F0A3D8FCD9FA7A9A7B1C9001377886
:1000D300DB79018015E493A3AD82AE838A828B839F
:1000E300F0A3AA82AB838D828E83D8E9D9E7758288
:1000F300A57583E9740312011975829175830074E0
:100103000012011975D00075813F751881751902A8
:10011300759F00020096C09FF59FE473D09F22D085
:1001230083D082C09FE493C0E0740193C0E0740263
:1001330093F59F229D03A903DF03D903FF0000B4B6
:10014300000028002800283075A000A000A000A00F
:100153000000080008E001F000100010001000107B
:10016300001000100050005000500010001000D08C
:10017300070000000000000F0001000500307507B4
:10018300001000010081FF00000000FFFFFF0202DA
:1001930002E591010000E09102F191010000F41CDD
:1001A30002F791010000B80202F191010000F51C71
:1001B30002F991010000CE02FFFF0100FF2002E5DA
:1001C30091010000DD9102F191010000231D02F372
:1001D30091000000000002F591030000FA021700ED
:1001E3002B0C2B0C2B0C2B0C2B0C2B0C2B0C2B0C54
:1001F3002B0C2B0C2B0C2B0C2B0C410E5F0E3B0EE4
:1002030001E803057710020AFFFFFF00FEFF12015A
:100213002294D303120122A7D303120122C8D303CA
:1002230012012233D40312012274D4031201229542
:10023300D403120122D6D4031201226ED503120174
:1002430022B6D503120122CBBD03120122DEBD0368
:100253001201220FBE0312012249BE03120122A280
:10026300BE03120122E9BE0312012231BF031201B0
:100273002260BF031201228FBF03120122C6BF03F4
:100283001201220DC00312012226C0031201227B98
:10029300C003120122A9C003120122E3C003120109
:1002A3002254A90212012257AA0212012284AA028D
:1002B300120122D5AA02120122F8AA021201220A6D
:1002C300AB021201220DAB021201224BAB0212014F
:1002D30022BFAB021201222BAC02120122F3AC02A9
:1002E30012012219AD0212012253AD02120122EAB8
:1002F300AD021201223CAE021201226DAE021201C6
:10030300229EAE02120122ABAE0212012215AF02EF
:1003130012012218AF0212012225AF021201222874
:10032300AF021201227FAF0212012282AF02120139
:1003330022BBAF02120122BEAF02120122C1AF02E1
:1003430012012223B00212012226B0021201227AE4
:10035300B002120122C3B002120122D3B002120171
:100363002206B10212012213B10212012216B102B6
:100373001201227EB10212012280B2021201222452
:10038300B3021201228DB302120122CBB302120176
:1003930022A1D1021201229ED20212012234D302DF
:1003A3001201227FD302120122E3D3021201226D32
:1003B300D40212012226D50212012248D8021201C8
:1003C30022C5D902120122E8D902120122ACAD03DF
:1003D30012012251AF0312012271AF0312012292C3
:1003E300B003120122E5B003120122F2B10312019C
:1003F300221AB20312012247B2031201227FB2036F
:10040300120122DDB20312012229B3031201229049
:10041300B303120122D0B3031201220DB40312015C
:10042300223BB403120122E5B403120122EFB40309
:10043300120122FCB4031201222FB5031201223B45
:10044300B50312012253B5031201225DB503120154
:1004530022CEE403120122DCE403120122F4E403BA
:100463001201220CE50312012223E5031201229952
:10047300E30112012243E401120122BFE40112014C
:1004830022DDE50112012219E601120122B4E6017F
:1004930012012298E7011201225BE801120122D323
:1004A300E80112012261EA01120122D2EA011201DA
:1004B300228CEB011201227EEC01120122BEEC011F
:1004C30012012272ED01120122A4ED011201229AFE
:1004D300EF01120122DCEF01120122FAEF011201F6
:1004E300227FF00112012243F10112012262F30182
:1004F300120122E3B903120122F9B90312012217EF
:10050300BA0312012228BB0312012232BB031201D8
:10051300225DBC0312012254BD03120122C1BD039B
:10052300120122EB95031201228F9603120122C6B8
:1005330096031201221D970312012232990312011D
:1005430022FC9101120122AD9201120122BD9201FE
:10055300120122539301120122909301120122CC22
:100563009301120122D79301120122AD94011201CA
:10057300228A95011201221A9601120122D19601B3
:10058300120122DF9901120122CE9B011201228066
:100593009C01120122499D011201228EA001120128
:1005A3002238A10112012261A2011201221DA4011C
:1005B300120122BDA4011201220BA5011201224A3C
:1005C300A5011201221DA60112012251A601120149
:1005D30022DEA60112012264D101120122F0D1010F
:1005E30012012254D30112012260D3011201229B72
:1005F300D3011201220AD40112012213D5011201DF
:10060300221CD601120122E3D60112012240D80195
:100613001201225ED8011201227BD8011201224667
:10062300D9011201226ED90112012238DC01120113
:10063300223DDC0112012256DE01120122A4DE0159
:1006430012012214DF0112012252DF011201222EB4
:10065300E001120122EEE0011201223AE10112014E
:10066300223DE10112012281E101120122C9E101CE
:1006730012012208E2011201222AE2011201225E82
:10068300E201120122C1E201120122E190031201EF
:1006930022EA9003120122F890031201224B9103E4
:1006A3001201226A9103120122AF9103120122F374
:1006B30092031201228E9303120122D29303120199
:1006C30022FC93031201226B9403120122B19403BF
:1006D300120122289503120122D99503120122E463
:1006E3002400120122F42400120122952500120194
:1006F30022F12500120122AE2600120122CA270090
:10070300120122FC27001201222B2800120122D8F9
:1007130029001201224F2C00120122BF2E001201C8
:1007230022B12F00120122AA3000120122B132009D
:10073300120122A53500120122D43600120122D85B
:100743003800120122E83900120122773B0012011E
:1007530022683C00120122B63C00120122253D0012
:10076300120122493D001201229A3D001201223B4F
:1007730042001201223C43001201229D4300120158
:1007830022C843001201228E440012012212FC02ED
:100793001201221CFC0212012261FC0212012275C9
:1007A300FC0212012205FD021201222DFD0212019B
:1007B3002268FD0212012291FD02120122C5FD02EF
:1007C300120122DAFD0212012245FE021201226603
:1007D300FE021201227AFE021201228FFE02120190
:1007E30022C9FE021201222EFF0212012271FF0210
:1007F3001201229BFF02120122D7FF02120122BE25
:10080300E103120122DE7300120122C174001201FE
:10081300223C7500120122777500120122C876006E
:10082300120122517700120122697900120122FB81
:100833007B00120122AD7C00120122CC7D0012014B
:1008430022257E00120122A38603120122E68603DB
:100853001201226A87031201223D88031201221426
:100863008B03120122F6D003120122A3D10312013A
:1008730022B0D203120122EFD20312012249D30381
:10088300120122AAD9031201220DDA03120122AAAC
:10089300DA03120122D8DA03120122F9DA03120170
:1008A3002234DB0312012254DB03120122CB9F0308
:1008B30012012257A00312012216A1031201222EB4
:1008C300A20312012248A40312012249BE0212010B
:1008D300226EBE0212012242BF02120122AFBF02E8
:1008E30012012205C002120122A1C002120122D567
:1008F300C102120122B0C2021201220FC30212016D
:1009030022E0C3021201226CC4021201226FC4024C
:10091300120122B9C4021201222BC502120122D6EE
:10092300C502120122F6C5021201223EC6021201BD
:10093300225AC602120122D4C602120122E2C602C0
:1009430012012271C702120122DAC7021201221612
:10095300A9031201229BA903120122DDA90312019B
:1009630022C1AA031201222EAB0312012272AB038E
:10097300120122B6AB03120122E3AB031201220BD5
:10098300AC0312012243AC0312012281AC03120116
:1009930022A8AC0312012222AD031201226CAD0383
:1009A300120122855D00120122525F001201223BD7
:1009B30061001201228F6100120122BA610012014B
:1009C30022696200120122AD6200120122F162006B
:1009D30012012204630012012245630012012272F4
:1009E3006300120122C06300120122066400120197
:1009F3002231640012012284640012012210650076
:100A0300120122F96500120122E36600120122E1BC
:100A13006800120122F06D00120122496E001201DA
:100A230022856E001201226B7000120122247200D3
:100A33001201227A7200120122AA7300120122BB50
:100A4300730012012250CE03120122C2CE031201FF
:100A53002218CF031201225CCF031201227CCF03A1
:100A6300120122C9CF0312012211D0031201226401
:100A7300D003120122B5D003120122FA440012015D
:100A830022434500120122704500120122A24500B3
:100A9300120122AE4500120122BA4500120122D1F1
:100AA3004500120122AC46001201220A470012013E
:100AB300223F4700120122704800120122BD480064
:100AC3001201220B4900120122694900120122522C
:100AD3004A00120122CE4B00120122974C00120150
:100AE30022A74C00120122D14C00120122D44C0047
:100AF300120122AB4D001201225C4E0012012201B1
:100B03004F001201225F4F00120122A64F00120173
:100B1300222A5000120122C55000120122705100F6
:100B23001201221C52001201228E5200120122D500
:100B3300520012012239530012012268530012019C
:100B430022FB53001201220D5600120122515600BE
:100B5300120122965600120122185700120122A2F6
:100B63005700120122B758001201223D5900120109
:100B730022625900120122B95900120122CE5900F2
:100B8300120122165A00120122895A00120122CEA2
:100B93005A00120122D35B00120122845C0012016D
:100BA30022E05C001201223C5D00120122555D002F
:100BB3001201220BDB021201225FDB021201226B04
:100BC300DB0212012235DC0212012262DC02120175
:100BD3002290DC02120122FCDC0212012232DD022D
:100BE3001201226BDD0212012283DD02120122D8DF
:100BF300DD02120122F1DD0212012236DE021201B0
:100C03002249DE0212012263DE0212012279DE0290
:100C130012012297DF02120122C2E002120122AC6A
:100C2300E1021201229DE202120122FD7F00120164
:100C330022C68B03120122498F03120122969003CD
:100C43001201226FF30112012242F601120122481E
:100C5300F601120122D8F8011201223BFB01120115
:100C6300227FA40312012216A503120122D4A50395
:100C7300120122FEA503120122D8A703120122DDCD
:100C8300A803120122A0BD01120122D2BD0112014B
:100C930022B7C70112012208C90112012211CA0198
:100CA30012012290CB0112012277CC01120122C63C
:100CB300CC01120122E0CC0112012226CD01120146
:100CC300226DCD0112012276CD0112012222CE0125
:100CD300120122FBCE0112012242CF01120122AAEC
:100CE300CF01120122ECCF011201221AD00112010D
:100CF3002257D001120122E4C7031201225AC8036A
:100D030012012270C80312012200C9031201223DFD
:100D1300C90312012277C903120122B1C9031201C7
:100D23002224CA0312012265CA031201226ECA03D6
:100D33001201227ACA0312012299CA03120122C3A1
:100D4300CA03120122F3CA03120122008003120113
:100D5300221380031201222D80031201225A8003E1
:100D6300120122A08003120122D380031201221157
:100D730081031201227681031201228B8103120166
:100D830022A28103120122B08103120122BF810337
:100D9300120122D48103120122E98103120122F4F8
:100DA30081031201220082031201220D8203120128
:100DB300222082031201222B82031201225082037A
:100DC300120122F482031201220983031201221E5B
:100DD3008303120122388303120122558303120174
:100DE300227283031201227D8303120122298403C9
:100DF3001201220A85031201222F85031201223ACE
:100E030085031201224F8503120122638503120118
:100E130022C48503120122CA8503120122D085034D
:100E2300120122D68503120122EE8503120122212B
:100E33008603120122F1B30212012213B40212013A
:100E430022DBB40212012295B702120122ABB802CF
:100E5300120122CCB902120122A6BA0212012255B2
:100E6300BB02120122928E02120122298F02120169
:100E730022C18F02120122B19002120122E89002D4
:100E8300120122FB90021201226991021201220433
:100E930093021201222B9302120122CD930212011B
:100EA300220294021201221394021201228C940250
:100EB300120122AD9402120122C594021201221DD5
:100EC3009602120122269802120122769A02120138
:100ED30022799B02120122C89B0212012200800286
:100EE300120122FD8002120122E88102120122F284
:100EF30081021201221482021201222082021201B3
:100F030022728302120122A18302120122D18402DE
:100F13001201221385021201223F860212012215B9
:100F23008702120122678702120122C68702120179
:100F330022FD8702120122388802120122D38B027A
:100F4300120122EC8B021201226E8C021201227C0E
:100F53008C02120122D18C02120122DF8C021201B7
:100F6300224C8D02120122BE8D02120122048E0236
:100F730012012262DB0312012287DB03120122F832
:100F8300DB0312012257E40212012260E402120180
:100F93002269E4021201229AE502120122B9E70250
:100FA300120122EFE70212012229E8021201225F55
:100FB300E80212012299E802120122CDE80212018D
:100FC30022F9E80212012242E9021201227CE9021B
:100FD300120122C4E9021201221AEA021201224F6B
:100FE300EA02120122AAEA02120122E4EA0212012F
:100FF3002235EB021201226BEB02120122A5EB0256
:10100300120122C8EB0212012267E60312012293A6
:10101300E603120122EEE603120122F8E6031201AF
:101023002208E703120122E19A03120122209B0303
:10103300120122A99B03120122BE9B031201220962
:101043009C031201224F9C03120122A89C0312014C
:1010530022F79C03120122509D031201225D9E037D
:10106300120122569F03120122939F031201228D24
:10107300E803120122D4A70112012256AA01120188
:1010830022CAAB0112012227AC01120122D0AC010A
:10109300120122CDAD0112012255AE01120122E14E
:1010A300AE0112012206AF0112012256AF01120155
:1010B30022FAB10112012274B20112012260B301BA
:1010C3001201229AB301120122DAB3011201227B27
:1010D300B501120122ACB501120122FFB5011201C3
:1010E3002248B601120122B9B601120122E8B60163
:1010F30012012202B70112012218B801120122289B
:10110300B801120122AFB901120122CFB9011201B4
:101113002205BA0112012285BB01120122FEBB0185
:101123001201223DBC0112012270BD01120122DD18
:10113300D70312012241D803120122F0D80312016E
:10114300220FD90312012263D903120122B3E5034B
:10115300120122C4E503120122F8E9031201223726
:10116300EA03120122E87F0012012212E7031201AF
:101173002222E7031201223AE703120122A0E70326
:10118300120122D2E20312012256E303120122BE0C
:10119300E30312012241E0031201226AE003120178
:1011A30022D7E0031201222AE10312012283E10381
:1011B30012012221CB0312012236CB031201223D5D
:1011C300CC03120122C4CC0312012238CD03120135
:1011D3002252CD0312012269CD031201227CCD03D9
:1011E30012012294CD03120122A9CD03120122CAB6
:1011F300CD031201221BCE03120122EBFF011201C8
:1012030022A6C40312012236C503120122B4C50368
:1012130012012245C603120122D7C6031201222A54
:10122300C70312012234C70312012243C703120169
:101233002259C7031201226CC703120122CDC7032F
:10124300120122E1C703120122CE7E0012012238CD
:101253007F00120122437F00120122537F001201FB
:10126300225E7F001201227A7F00120122B6DE0382
:10127300120122DFDE0312012208DF03120122A280
:10128300DF03120122BADF03120122FCDF03120182
:10129300223AF40212012244F40212012284F402DB
:1012A300120122CDF40212012207F5021201225D7E
:1012B300F5021201227CF50212012204F802120146
:1012C300220DF8021201225EF80212012287F802AF
:1012D3001201229CF8021201220CF9021201229A35
:1012E300F902120122DEF90212012207FA021201A7
:1012F3002286FA02120122C3FA02120122FAFA0228
:101303001201220CFB021201222BFB0212012234D6
:10131300FB02120122E6FB0212012218DD03120175
:101323002269DD03120122F2DD0312012258DE03DA
:101333001201224BC10312012275C1031201226A59
:10134300C2031201228FC20312012233C30312010B
:1013530022BAC303120122D7E303120122E1D50308
:1013630012012217D6031201224AD603120122A325
:10137300D703120122AAE703120122C0E7031201D5
:1013830022CAE703120122EDE80312012256EC02FE
:1013930012012213ED021201224EED021201227FED
:1013A300ED02120122E1ED021201222DEE021201E1
:1013B3002298EE0212012212EF0212012211F00210
:1013C30012012298F1021201221BF2021201228160
:1013D300F20212012294F2021201228FF30212018D
:1013E30022DCF302120122EBB50312012201B60340
:1013F300120122A5B603120122E4B603120122014F
:10140300B70312012232B7031201227FB70312017D
:1014130022B3B703120122EEB703120122159C0275
:101423001201220A9D02120122A49D0212012268C6
:10143300A0021201228BA0021201226FA20212014A
:1014430022C1A20212012254A30212012290A40279
:1014530012012211A50212012285A50212012235D1
:10146300A602120122FDC7021201222FC802120195
:10147300226BC802120122D2C80212012241EA03DE
:10148300120122BEEA0312012220E803120122877D
:10149300EA03120122EAEA0312012213EB03120107
:1014A300224CE903E066701008A3E066700A08A303
:1014B300E066700408A3E06622C3E7960809E7968E
:1014C3000809E7960809E79622C3E09608A3E09681
:1014D30008A3E09608A3E09622C008C3E096F508A7
:1014E30008A3E096420808A3E096420808A3E09602
:1014F30045087001D3D00822080808EAC0E0EBC011
:10150300E086F0E7A4FA180986F0E7A42AFA180996
:1015130086F0E7A42AFA180986F0E7A42AFA1986BE
:10152300F0E7A4FBE5F02AFA190886F0E7A42BFB01
:10153300E5F03AFA190886F0E7A42BFBE5F03AFA4E
:1015430018180986F0E7A4C5F02BFBE43AFA19084A
:10155300E7C5F0C6A426F6E5F03BFBE43AFA1886A5
:10156300F0E7A4F6E5F00826F6E43B08F6E43A08CB
:10157300F6D0E0FBD0E0FA22E4CFC0E0E4CEC0E056
:10158300E4CDC0E0E4CCC0E075F020E626F608E642
:1015930033F608E633F608E633F6181818EC33FC8E
:1015A300ED33FDEE33FEEF33FFC3EC9709ED9709FF
:1015B300EE9709EF97191919400FFFEC97FC09ED06
:1015C30097FD09EE97FE191906D5F0BFECF709ED63
:1015D300F709EEF709EFF7191919D0E0FCD0E0FD90
:1015E300D0E0FED0E0FF22E4C396F608E496F608C6
:1015F300E496F608E496F6226016080808C6C313B4
:10160300C618C613C618C613C618C613C6D5E0EA4D
:10161300227009080808226016181818C6C333C6B2
:1016230008C633C608C633C608C633C6D5E0EA22A1
:10163300E627F60809E637F60809E637F60809E665
:1016430037F622E026F608A3E036F608A3E036F6DE
:1016530008A3E036F622E026F008A3E036F008A35C
:10166300E036F008A3E036F022C3E697F60809E671
:1016730097F60809E697F60809E697F622C3E09677
:10168300F008A3E096F008A3E096F008A3E096F034
:1016930022E657F60809E657F60809E657F6080959
:1016A300E657F622E056F608A3E056F608A3E056FE
:1016B300F608A3E056F622E056F008A3E056F00839
:1016C300A3E056F008A3E056F022E066F608A3E094
:1016D30066F608A3E066F608A3E066F622E0F608DD
:1016E300A3E0F608A3E0F608A3E0F622E6F008A3D9
:1016F300E6F008A3E6F008A3E6F022E0FAA3E0FB95
:10170300A3E0FCA3E0FD22EAF0A3EBF0A3ECF0A33B
:10171300EDF022E0F8A3E0F9A3E0FAA3E0FB22E86E
:10172300F0A3E9F0A3EAF0A3EBF022CAC0E0E6F0ED
:10173300A308DAFAD0E0FA22CAC0E0E0A3C582CC5B
:10174300C582C583CDC583F0A3C582CCC582C583BD
:10175300CDC583DAE6D0E0CA22C3E498F8E499F968
:1017630012179D8026C3E49AFAE49BFBE920E7E97C
:1017730012179DE498F8E499F922C3E498F8E499E0
:10178300F912179DE498F8E499F9C3E49AFAE49BF3
:10179300FB22EB20E7CFE920E7E0B90010BB00080C
:1017A300E88AF084F8AAF022E4FBC8FA22EB70225C
:1017B3007B10C833C8C933C9335007C39AC3DBF29C
:1017C30080069A50012ADBEAC833F4C8C933F4C946
:1017D300FA2275F008E4C833C8C933C933C99AC9B2
:1017E3009B5004C92AC93BD5F0ECFBC833F4C8E4C9
:1017F300C9FA22600D08C6A2E713C618C613C6D5D8
:10180300E0F322600C08C6C313C618C613C6D5E09E
:10181300F422700422600D18C6C333C608C633C64B
:10182300D5E0F41822251810AF08F518400C151947
:101833008008F51840021519D2AF2200C0D0251830
:1018430010AF08F518500C05198008F5185002055B
:1018530019D2AFD0D0222518F58210AF08F5184061
:101863000C15198008F51840021519D2AF85198394
:10187300222518F582E43519F583222518F8E43575
:1018830019F9222518FAE43519FB222518FCE43549
:1018930019FD22E4732518C582C0E0E51934FFC59C
:1018A30083C0E0E518C3958224F810AF0885831937
:1018B3008582188008858319858218D2AFCEF0A35C
:1018C300E520F0A37808E608F0A3DEFAEFF0A3E53D
:1018D3008124FAF8E608F0A3E608F0A3E608F0A3EB
:1018E3000808E608F0A3E608F0A315811581D0E007
:1018F300FED0E0F8158115811581E8C0E0EEC0E067
:10190300222518C582C0E0E51934FFC583C0E0E590
:1019130018C3958224F910AF08858319858218802E
:1019230008858319858218D2AFCEF0A3E520F0A3F2
:101933007808E608F0A3DEFAEFF0A3E58124FBF8CC
:10194300E608F0A3E608F0A30808E608F0A3E60813
:10195300F0A315811581D0E0FED0E0F81581158143
:10196300E8C0E0EEC0E022851983851882E0A3FE7B
:10197300E0A3F5207808E0A3F608DFFAE0A3FFE090
:10198300A3C0E0E0A3C0E0E0A3C0E0E0A3C0E0E0C8
:10199300A3C0E010AF08858218858319800885826B
:1019A30018858319D2AFD083D08202011F85198392
:1019B300851882E0A3FEE0A3F5207808E0A3F608EB
:1019C300DFFAE0A3FFE0A3C0E0E0A3C0E0E0A3C030
:1019D300E0E0A3C0E010AF08858218858319800872
:1019E300858218858319D2AFD083D08222C0D025B7
:1019F30018C582C0E0E51934FFC583C0E0E518C30C
:101A0300958224F310AF0885831985821880088591
:101A13008319858218D2AFC8F0A3E9F0A3EAF0A333
:101A2300EBF0A37908E709F0A3D8FAECF0A3EDF003
:101A3300A3EEF0A3EFF0A3D0E0F0A3D0E0F0A3D0A7
:101A4300E0F0A3E520F0A3E5F0F0A3228519838558
:101A53001882E0C0E0A3E0F9A3E0FAA3E0FBA378D7
:101A630008E0F608A3DFFAE0FCA3E0FDA3E0FEA391
:101A7300E0FFA3E0C0E0A3E0C0E0A3E0F5D0A3E073
:101A8300F520A3E0A3F5F010AF088583198582182C
:101A93008008858319858218D2AFD082D083D0E0A5
:101AA300F8D0E03274048006740280027401C0E04E
:101AB300F404121859D0E012172E2274048004740F
:101AC300028000CCC0E0EDC0E0E518C39CCCAD19AA
:101AD30050011D10AF068C188D1980068C188D19B6
:101AE300D2AF12173BD0E0FDD0E0FC22D083D082EE
:101AF300E9C0E0E493A3C386F0C5F095F0F908E4E8
:101B030093A386F0C5F095F0700BE493A3C39940BB
:101B130005E9048002A3E475F002A42582F582E5B9
:101B2300F03583F583D0E0F9E493A3C0E0E493C0F8
:101B3300E022D083D082ECC0E0EDC0E0E493A3FCCC
:101B4300E493A3FDED4C600D121B81EC24FFFCED2F
:101B530034FFFD80EFE493A3FCE493A3FDED4C601D
:101B63000D121BC0EC24FFFCED34FFFD80EFD0E031
:101B7300FDD0E0FCE493A3C0E0E493C0E022C0E026
:101B8300C3E49396087401939618400FE493667028
:101B93000808740193661870007019A3A3C3E49333
:101BA30096087401939618A3A3400DD0E0D0E0D01B
:101BB300E0021B71A3A3A3A3A3A3D0E022C0E0C0B0
:101BC300F088F0E493667008087401936618700057
:101BD300A8F0A3A3700BD0F0D0E0D0E0D0E0021BBC
:081BE30071A3A3D0F0D0E022B1
:101BEC0074F6121904EAFEEBFF8C088D09EE24340E
:101BFC00F8E43FF9E8FCE9FD121D1EE0FAEE24378B
:101C0C00F582E43FF583E0F88508F0A4C885F00A76
:101C1C008509F0A4250AF9EA28F8E439F97A257B34
:101C2C000012179DEA8C828D83F0FA131313541F44
:101C3C00F8EE28F8E43FF9E8245DF582E439F58301
:101C4C00E0C0E074075AF8D0E0B800028004C31377
:101C5C00D8FCA2E05003EA8020EE2436F582E43F63
:101C6C00F583E0F5F0EA84A8F0EE28F8E43FF9E813
:101C7C002438F582E439F583E0F97F030219B07456
:101C8C00F5121904EAFEEBFFEE2434F582E43FF57D
:101C9C0083E0C0E0121D1ED0E0F08E828F83A3A3E0
:101CAC00A3A3A3E0FAA3E0FB8E828F83A3A3A3A339
:101CBC00A3A3A3E0C39AF508A3E09BF509EE247F48
:101CCC00F8E43FF9880A890B8882F583E064017097
:101CDC002CEE2480F582E43FF583EA2401F8E43B02
:101CEC00F9E0687003A3E06970137CC07D06EEFA1E
:101CFC00EFFB120B3B850A82850B83E4F0AC08AD3D
:101D0C0009EEFAEFFB121BECE9F91223597F0402DE
:101D1C0019B0EE2435F582E43FF5832274ED1219E7
:101D2C0004900369E064086005E06407702C90611E
:101D3C00C8E06026900397E0F874FF68601CE875B3
:101D4C00F00DA4C8AAF02AF9749928FE740339FF7F
:101D5C008E828F83A3A3A3E070057900021EC1EECF
:101D6C002468F50EE43FF50F906060E0850E8285E7
:101D7C000F83F07510FC751106750800750900E5E8
:101D8C00D914F50AE5D95403F50B601FEE2483F53D
:101D9C000CE43FF50D7403650B6059E50A6017EE12
:101DAC002467F582E43FF583E0700B793DEEFAEFA2
:101DBC00FB120B6B80A49006F7E064016023850C8A
:101DCC0082850D83E060047A0480027A00E50AC300
:101DDC009AFA95E0FB1209B58A088B09EA45097055
:101DEC0006120E17021D66850C82850D83E07004A9
:101DFC008A108B117A008014E5D9C0E0EAF8E5105E
:101E0C0028F582E43511F583D0E0F00AEAC3950A8F
:101E1C0040E6850C82850D83E0602874FC250AF56C
:101E2C000A7810121AABAC0AA90BEEFAEFFB120CE3
:101E3C0025740212183EE9700AAA08AB0912132184
:101E4C00021DB77403650B6054850A0C750D007880
:101E5C000C121AABAC10AD11AA08AB09120BE97439
:101E6C000212183E850E82850F83E0F8748068702C
:101E7C0005750C7F8002880CE50CF50D780D121A97
:101E8C00AF780B121AAFA90AAC08AD09900397E012
:101E9C00FA7B001207FF740212183E80139003693C
:101EAC00E06408700BAC10AD11EEFAEFFB120C55A0
:101EBC00120E2379017F0C0219B074F312190474F9
:101ECC00FC121828EAFEEBFF8909A2AFE433F508EF
:101EDC00C2AFEE2463F50AE43FF50B8010AA0AABFF
:101EEC000B120BA11213219006C7E004F0850A8295
:101EFC00850B83E0F8A3E0F9E849602DE82402FAA9
:101F0C00E439FBEA2402F50CE43BF50D780C121ACB
:101F1C00AB8A828B83E0FCA3E0F9EEFAEFFB120BA9
:101F2C0095740212183EE960B49006C7E0604D90BB
:101F3C0006C8E0F89006C7E0C398500C7402650917
:101F4C00703A9006C9E060348E828F83A3A3A3A35A
:101F5C00E0851882851983121F987402121874E890
:101F6C00121F989006C6E028F0740212188EAA1858
:101F7C00AB1979011208599006C7E4F0E508A2E004
:101F8C0092AF740412183E7F060219B0F0A3E4F06D
:101F9C009006C7E0F8220000851A87851BC622C070
:101FAC00E074EB1219F0A2AFE433F508C2AF759BE5
:101FBC0000906182E0A2E05030E591A2E0502A75D9
:101FCC0091FE7401651A702112213E120D3F1221EF
:101FDC002C121ABE122295740412183EE964017078
:101FEC00057901120D7B121D28906182E0A2E5504B
:101FFC005DE591A2E550577591DF900369E06407A8
:10200C006005E06408702F12213E7401651A703E61
:10201C00120D3F12212C121ABE12229574041218A2
:10202C003EE9640170057901120D7B7901EEFAEF3E
:10203C00FB121EC68018E0640D701390038BE00435
:10204C00F064287002E4F07A00E0F9120E29906135
:10205C0082E0A2E64003022101E591A2E6400302E0
:10206C0021017591BF900369E064057008120D277A
:10207C00120D338003120D2D751A00120D99E99073
:10208C00036AF07900120D7B120A9F7A017B009093
:10209C000368E0F91212F1907803E06442705690F4
:1020AC0006FBE014F0704EC2AF1220B800781DD0C1
:1020BC00E0F618D0E0F6E59F5407F87005750DFFB3
:1020CC008003750D7FC4C0E0781CE6F50A08E65560
:1020DC000DF50B740B780A121806D0E0250AF8904F
:1020EC006270E0A2E740F8E8C333906272F090624D
:1020FC0070E0D2E0F0906181E0A2E35009E5E9A242
:10210C00E3500375E9F7A3E0A2E75009E591A2E7D4
:10211C00500375917FE508A2E092AF7F08021A4F39
:10212C008E828F83E0F8A3E0C82416F582E438F59C
:10213C008322900397E0F875F00DA4C8AAF02AF951
:10214C00749928FE740339FF22C0E0C0D0C082C04D
:10215C0083906183E0A2E05009E5BFA2E0500375D3
:10216C00BFFEE0A2E15009E5BFA2E1500375BFFD3F
:10217C00E0A2E25009E5BFA2E2500375BFFBE0A26A
:10218C00E35009E5BFA2E3500375BFF7E0A2E450AA
:10219C0009E5BFA2E4500375BFEFE0A2E55009E5E5
:1021AC00BFA2E5500375BFDFE0A2E65009E5BFA270
:1021BC00E6500375BFBFD083D082D0D0D0E032C000
:1021CC00E074F21219F0E5A7A2E4500FE5A1A2E425
:1021DC00500953A7EF75A1EF12221FE5A7A2E550F6
:1021EC000CE5A1A2E5500653A7DF75A1DFE5A7A278
:1021FC00E15009E5A1A2E1500375A1FDE5A7A2E21A
:10220C00500CE5A1A2E2500653A7FB75A1FB7F0180
:10221C00021A4F74F8121904751A01900369E064DC
:10222C000670077A007B00120D0FA2AFE433FED2CA
:10223C00AF90036FE0640170187A207B0090036804
:10224C00E0F912140B7A207B00900368E0F912126B
:10225C00F7906182E0D2E6F09006F8E0602185C646
:10226C001B801690036EE064017008E5C654F844B8
:10227C0005F5C653BEFC121FA47401651A60E4EE8A
:10228C00A2E092AF7F010219B074F11219048A080E
:10229C008B098C0A8D0B90916478081216A7740F19
:1022AC00121874780C1216E0909164780C1216A720
:1022BC007808790C1214BC9091BC50107808790CE9
:1022CC0012166C78081214DC4014800E780C790805
:1022DC0012166C780C1214DC50047901800279000F
:1022EC007F080219B074ED1219048A088B098C0A44
:1022FC008D0B90916478081216A7741312187478C9
:10230C000C1216E0909164780C1216A7780C7908D0
:10231C001214BC40117808790C12166CAA08AB097F
:10232C00AC0AAD0B8022751000751100751200758A
:10233C0013017810790C12166C7810790812163378
:10234C00AA10AB11AC12AD137F0C0219B0C082C035
:10235C0083E9906000F0D083D08222C0E074F21246
:10236C0019F0A2AFE433FED2AFC2C0E5D1A2E45063
:10237C000675D10F121243EEA2E092AF7F01021A42
:10238C004FC0E074F21219F0A2AFE433FED2AFE505
:10239C0089A2E150031211AD758900C2C5EEA2E00D
:1023AC0092AF7F01021A4FC0E074F21219F0A2AF83
:1023BC00E433FED2AFE58BA2E050031211AD758B66
:1023CC0000C2E880D8C0E0C0D0E8C0E0A8A8D2AF76
:1023DC00C2C7E8A2E792AFD0E0F8D0D0D0E032C0CC
:1023EC00E0C0D0E8C0E0E9C0E0EAC0E0EBC0E0C08B
:1023FC0082C083A2AFE433F9D2AF900F3CE0F8A3D4
:10240C00E0687008539AFBA374018022C2E9900F14
:10241C003CE0F8740128F074BC28F582E4340EF525
:10242C0083E0F5C1900F3CE0C394804002E4F0E9F6
:10243C00A2E092AFD083D082D0E0FBD0E0FAD0E023
:10244C00F9D0E0F8D0D0D0E032C2AF0200002200C8
:10245C002020202020202020202828282828202048
:10246C002020202020202020202020202020202060
:10247C0088101010101010101010101010101010D8
:10248C0004040404040404040404101010101010B8
:10249C001041414141414101010101010101010191
:1024AC0001010101010101010101011010101010C5
:1024BC001042424242424202020202020202020262
:1024CC00020202020202020202020210101010208A
:1024DC00FFFFFFFFFFFFFFFFC082C083E9901D22BB
:1024EC00F0D083D08202011F74F6121898E9900282
:1024FC00DCF090033BE0F5087509007402780812D3
:10250C001815AA08AB091213699002DD122EA790B8
:10251C0002DD123294606F90033BE075F003A4FA75
:10252C00ABF01213699002FA122EA79002FA123233
:10253C0094700B9002DD12326512136F804890027A
:10254C00FA1241F97AFF7BFF12112F7A0080198A57
:10255C000875090074027808121815123CA174FF52
:10256C001226A7E4F0A3F00A90033BE0F8EAC39824
:10257C0040DD79051206F79002DCE0F91205E37AEA
:10258C00817B07120955023D4474F41218988A088D
:10259C008B09EB548060479002DCE0F91212D98A67
:1025AC000A8B0BAE0AAF0BEE4F602A8E828F83E044
:1025BC0064B0701A120709E960148E828F83A3A38A
:1025CC00A3A3E0F9EE2405FAE43FFB1206D9EEFAD8
:1025DC00EFFB1212C7AA08E5096480FB80047A009D
:1025EC007B000227F774F212189874FB121828EA71
:1025FC00FEEBFFEE4F60457403121874EEF0A3EF80
:10260C00F0851882851983ECF0A3EDF07402121892
:10261C0074E9F0AA18AB191205DDE9F508707574A8
:10262C0013121874E0F50AA3E0F50BE50A450B60EC
:10263C00638E828F83122C30EE4F700575080280EA
:10264C00537A067B001213698A0C8B0DA80CA90D0A
:10265C00E8497005750813803B88828983E412264B
:10266C00A7EEF0A3EF1227C3E50AF0A3E50BF09059
:10267C0002E01227BC9002E06017E0FCA3E08003AC
:10268C00EAFCEBFD8C828D831227BC70F38C828D5F
:10269C00831238BCA9087405024479F0A31241DBFB
:1026AC00A32274F21218988908890C750D00740312
:1026BC00780C121815850C0A850D0B9002DFF09022
:1026CC0002DD1236C71227BA602E12136F79008002
:1026DC001D890C750D007402780C1218159002DD12
:1026EC00123B608882F583A3A3E4F0A3F009900366
:1026FC003BE0F8E9C39840D990033BE0FA850AF037
:10270C00A4CAA8F0850BF0A428FB1213698A0C8BC1
:10271C000DAE0CAF0DEE4F70030227B090033BE0F3
:10272C00FC850AF0A4CCA8F0850BF0A428FD790058
:10273C001212AF7C0080318D0C750D007403780C77
:10274C001218158A828B831227B588828983E4F04C
:10275C001227C2A3A3F0A3F00DEDC3950840D8EE49
:10276C00250AFEEF350BFF0C90033BE0F8ECC39809
:10277C0050288C0C750D007402780C1218159002F0
:10278C00DD1227B5E82402500109FAE9FB8A828B95
:10279C0083EEF0A3EFF07D0080BFE5089002DFF040
:1027AC0079008002791302447C123B64F922A3A3C2
:1027BC00123269EA4B22A31241DBA3A3A32274F4C5
:1027CC001218987900EAA2E0501F75084375099118
:1027DC007808121AAB79107C047D007A247B1D12C8
:1027EC0006F1740212183EE9F980007F0402196A9E
:1027FC00C082C0839002E0123294601C888289836C
:10280C00A3A3E06A7003A3E06B8882898370E8A3BA
:10281C00A3A3A312326580047A007B000224ED741A
:10282C00F212189874FD121828EAFEEBFF85188234
:10283C00851983E4F0A3F074021218747401F01279
:10284C00329170141208A71213699002E3122EA78A
:10285C0012329170030229BD122FA7EE2404F50A3F
:10286C00E43FF50B850A82F583E024FE603C24FCF2
:10287C00607424FE607E24FE700302290D24FE7019
:10288C000302291A24FE700302292724FE70030276
:10289C00293424FE700302294124FC7003022962AE
:1028AC0024FE700302297A0229B61208A79002E5C9
:1028BC00EAF0A3EB1229C9120253E960030229B60C
:1028CC009002E5121AC28E828F83A3A3A3A3A31234
:1028DC0041F98508828509831232651206C174029A
:1028EC0012183E0229B6AC18AD19EEFAEFFB12071E
:1028FC000F022985AC18AD19EEFAEFFB1207158003
:10290C0078AC18AD19EEFAEFFB12071B806BAC1804
:10291C00AD19EEFAEFFB120721805EAC18AD19EE83
:10292C00FAEFFB1207278051AC18AD19EEFAEFFB4A
:10293C0012072D8044740212187E880C890D780CB5
:10294C00121AAB740212188EEEFAEFFB12073374E4
:10295C000212183E8023AC18AD19EEFAEFFB1207E9
:10296C0039E9F870167402121874E4F0803CAC1853
:10297C00AD19EEFAEFFB12073FE9F8E8602C8E82F6
:10298C008F83A3E064146022850A82850B83E09018
:10299C0002E5F08518828519831232659002E612E1
:1029AC002EA7E8A31229C912024DEEFAEFFB12066C
:1029BC00977402121874E0F97403024479F07CE500
:1029CC007D028508828509831232692274E8121807
:1029DC009874FA1218287404121874ECF0A3EDF021
:1029EC008A128B13EA2405F50EE43513F50FEA244D
:1029FC0002F510E43513F511851082F5831232655A
:102A0C0012038B8A0A8B0B7508007C037D007900FE
:102A1C007AE57B021212AFE50E2402F516E4350FAF
:102A2C00F517740212187E880C890D780C121AABEB
:102A3C00850E82850F83A3A3A3A3E0F50C750D006F
:102A4C00780C121AABE50E2405F50CE4350FF50DD8
:102A5C00780C121AAB85168285178312356C120509
:102A6C00FB740612183E8A0C8B0DE50C450D700399
:102A7C00022BF98020851882851983E0888289834E
:102A8C00F00508851882851983A3E0C0E0122C3A62
:102A9C00D0E0F00508E50A24FBFAE50B34FFFBC394
:102AAC00E5089AE49B4003022BF97E007F00851217
:102ABC0082851383A3A3A3A3E0F5097809121AAFA7
:102ACC00E4F514F5157814121AAB7514E2751502A9
:102ADC007814121AAB9002E3121AC2740912187409
:102AEC00121AC2E50A24F9F9AC0CAD0D85108285D9
:102AFC001183123265120769740912183EE96003DA
:102B0C00022B9A850E82850F83A3A3A3A3A3A3A351
:102B1C00E0F89002E2E0687075E0F5148E15781418
:102B2C00121AAB1241F6850E82850F83A3A3A3A3C1
:102B3C00A3A3A3A31232651212A9740212183EE9C0
:102B4C00604C9002E6123294703BE4F51478141247
:102B5C001AAB7CFF7DFF79078510828511831232B9
:102B6C00651206D3740212183E12329A7017850E33
:102B7C0082850F831243937404121874123C5412FE
:102B8C00359D022C2D850C82850D83122C30A818B6
:102B9C00A919881489157814121AAB7404121874B4
:102BAC00121AC2851682851783122E9D120607747F
:102BBC000412183E8A0C8B0DEE4F7003022A76120B
:102BCC002C3AEE122C45123553EF122C45F8A3E09B
:102BDC003400F9E50C450D6003022A818882898353
:102BEC0074FFF00508122C3A74FFF00508E5086034
:102BFC001A1313543F122EAD12025FE960099002B2
:102C0C00E612326512132179008016850E82850F2B
:102C1C00831243937404121874123C541238BC7906
:102C2C000A023526A3A3A3A3E0FEA3E0FF22A80873
:102C3C009002E6E02812355322F00508089002E6CF
:102C4C00E0282274E812189874FA121828740212E8
:102C5C001874122EA77404121874ECF0A3EDF0740F
:102C6C0002121874E0240512353CE0F50CA3E0F5D3
:102C7C000D7402121874E02402F510A3E03400F570
:102C8C0011851082F58312326512038B750800755D
:102C9C000900EA24FCFEEB34FFFF8008050CE50C70
:102CAC007002050DA808C3EE98EF94005003022E95
:102CBC0059A818A919880E890F780E121AAB851409
:102CCC0082851583A3A3A3A31241FD121AABE514AD
:102CDC002405F50EE43515F50F780E121AAB851494
:102CEC0082851583122E9B1205FB740612183E8AE0
:102CFC000E8B0FEA450F7003022E59EA2404F516C9
:102D0C00E4350FF517851682F583E0F50CA3E0F595
:102D1C000D8518828519831241F98A828B83A3A3AE
:102D2C00A3E0F98510828511831232651205E9E959
:102D3C00F5096003022E597402121874123563F5EA
:102D4C00097809121AAFE4F512F5137812121AABBE
:102D5C007512E27513027812121AAB9002E3121A72
:102D6C00C27407121874121AC2EEF9AC0EAD0F85AC
:102D7C001082851183123265120769740912183E8C
:102D8C00E9F5096003022E59E508703FE4F50EF5EC
:102D9C000F780E121AAB7CFF7DFF790985108285A6
:102DAC0011831232651206D3740212183E12358941
:102DBC00700D7404121874122E907911022E8D90CD
:102DCC0002E2E024029002E6F080149002E6E0FABF
:102DDC009002E2E0790024025001096A497072A85D
:102DEC00089002E2E0FAE82AFAE43400FBEE9AEFEB
:102DFC009B405A851682851783E0C0E09002E7124B
:102E0C002C3FD0E0F00508851682851783A3E0C01F
:102E1C00E0089002E7122C3FD0E0F005089002E2A7
:102E2C001241FD121AAB1241F6A8081235301212DB
:102E3C0097740212183E9002E2E02508F50874FF20
:102E4C00650C700474FF650D6003022CA8E5086026
:102E5C001F9002E6E0F5F0E50884122EAD12026533
:102E6C00E960099002E71232651213217900801192
:102E7C00E509700375090A7404121874122E90A9CE
:102E8C00090235261236CBE50CF0A3E50DF022A392
:102E9C00A3124488AA0CAB0D22A3A3EAF0A3EBF077
:102EAC00229002E5F07CE57D02851082851183126B
:102EBC0032692274EC12189874FC1218281239CC4E
:102ECC00740212188E12325F1206018A0C8B0DEAF4
:102EDC00450D7003022F97122FA7A818A919881057
:102EEC0089117810121AAB7CFF7DFF790B85088253
:102EFC008509831232651206D3740212183E123001
:102F0C009D700C850A82850B8312359A022FA48E34
:102F1C00828F83A3A3A3A3E0F5127812121AAFE455
:102F2C00F512F5137812121AAB7512E575130278B7
:102F3C0012121AAB7810121AAB7409121874121AF6
:102F4C00C27409121874E0F9AC0CAD0D85088285B9
:102F5C000983123265120769740912183EE9FE7072
:102F6C00157CE57D02850882850983123265120283
:102F7C006BE97009802074166E70027E009002E678
:102F8C00123265121321EE7004800B7E01850A82C9
:102F9C00850B831238B9EEF90238CEEE2402F5080F
:102FAC00E43FF5092274EC12189874FC121828EA04
:102FBC00FEEBFF8C0E8D0FEE2405F508E43FF509B2
:102FCC00740212188E8508828509831232651206E6
:102FDC00018A0C8B0DEA450D700302308DEE240234
:102FEC00F50AE43FF50BA818A91988108911781077
:102FFC00121AAB7CFF7DFF790D12325F1206D3746F
:10300C000212183E12309D700B85088285098312BE
:10301C00359A807A8E828F83A3A3A3A3E0F51278CE
:10302C0012121AAF850882850983A3A3121AC275DE
:10303C0012E57513027812121AAB7810121AAB74CF
:10304C0009121874121AC27409121874E0F91232A7
:10305C005B120769740912183EE9FE700F7CE57D5E
:10306C000212325F120271E97009802074166E70C0
:10307C00027E009002E6123265121321EE7004807B
:10308C000B7E018508828509831238B9EEF9023866
:10309C00CE1232A4F510A3E0F511EA45112274E822
:1030AC0012189874FE1218288A168B178C148D150A
:1030BC00EA2405F50CE43517F50DEA2402F50EE4C7
:1030CC003517F50F850E82F58312326512038B8A44
:1030DC00088B09750B007C037D0079007AE57B0277
:1030EC001212AF750A00E50814F5100424FFF50858
:1030FC00E50934FFF50980549002E5E0FA9002E20C
:10310C00E0F8EA28F8E43400F9E50898E509995064
:10311C000D9002E5E0F8E510C3989002E2F0E0F5BE
:10312C00127513007812121AAB1241F69002E6E0F7
:10313C002AFAA3E03400FB121297740212183E9084
:10314C0002E2E0F89002E5E028F0050A850C8285A1
:10315C000D83A3A3123B7040030232409002E5E0C2
:10316C00C39508E495094003023240AE0AEE2EFEE8
:10317C00E433FF12327FAC18AD19124211E439FB63
:10318C001206018A128B13AC12AD13EC4D701B7529
:10319C000B0112326F1238BD9002E61227BC60038D
:1031AC00121321A90B740202352885168285178308
:1031BC00A3A3A3A3E0F50B780B121AAFE4F512F559
:1031CC00137812121AAB7512E27513027812121AD6
:1031DC00AB9002E3121AC27407121874121AC2A925
:1031EC0010850E82850F83123265120769740912DD
:1031FC00183EE9F50B709B9002E6123294600302C4
:10320C003104E4F512F5137812121AAB7CFF7DFF32
:10321C00790F850E82850F831232651206D37402E4
:10322C0012183E12329A600302310412326F1235B8
:10323C009E0231B17CE57D02850E82850F831232B0
:10324C0065120277E960030231A479000231B1AC56
:10325C000CAD0D850A82850B8312326922E0FAA32C
:10326C00E0FB2212327FE0FAA3E0F9EA85148285B2
:10327C00158322850C82850D83E02EF8A3E03FF99F
:10328C0088828983229002E3124397E84922123202
:10329C00A4F8A3E0F9E849229002E6EAF0A3EBF0E7
:1032AC009002E6E02274E812189874FA1218287446
:1032BC0004121874122EA78C168D1774041218741D
:1032CC00E02405F50EA3E03400F50F740412187415
:1032DC00E0240212353C12326512038B8A0A8B0BE6
:1032EC007F007E00A818A919880889097808121A85
:1032FC00AB850E82850F83A3A3A3A3E0F5088E09EB
:10330C007808121AABE50E2405F508E4350FF5091B
:10331C007808121AAB850E82850F83A3A312356C25
:10332C001205FB740612183E8A0C8B0D802912357F
:10333C005DF00F12355DF00F9002E21238A8121AF0
:10334C00AB1241F6EFF812353012129774021218C4
:10335C003E9002E2E02FFFE50C450D70030233ECCA
:10336C008518828519831239DEA3A3A3E0F985148D
:10337C00828515831232651205E9E9FEE50C2404F9
:10338C00F510E4350DF511EE70507404121874122A
:10339C003563F5087808121AAFE4F508F5097808D2
:1033AC00121AAB7508E27509027808121AAB900272
:1033BC00E3121AC27407121874121AC2E50A24FA1C
:1033CC00F9AC0CAD0D85148285158312326512078C
:1033DC0069740912183EE9FE60391235791238BC4D
:1033EC00EF70030235139002E6E0F5F0EF849002E3
:1033FC00E5F07CE57D028514828515831232651219
:10340C00027DE960099002E71232651213217900FE
:10341C000235268F08EF703BE4F512F51378121283
:10342C001AAB7CFF7DFF79118514828515831232CE
:10343C00651206D3740212183E12358970091235C2
:10344C007912359D0235269002E2E024049002E6C2
:10345C00F080359002E2E0F89002E6E0FAE824040D
:10346C00FCE43400FDEC6A4D60030233F2E50A24FF
:10347C00FAFAE50B34FFFBE50828F8E43400F9EA26
:10348C0098EB9950030233F2851082851183E0C0CA
:10349C00E09002E7E02FF8A3E034008882F583D0B7
:1034AC00E0F00F851082851183A3E0C0E012354A4D
:1034BC00D0E0F00F740212187E880889097808127F
:1034CC001AAB7402121874121AC2850E82850F83FD
:1034DC00122E9B120607740412183E8A0C8B0DEAEE
:1034EC00450D700302333A7402121874E0C0E012F6
:1034FC00354AD0E0F00F7402121874A3E0C0E01249
:10350C00354AD0E0023342EE70027E0A850E828587
:10351C000F8312357F1238BCEEF9740612183E7FF9
:10352C001002196A9002E7E028FAA3E03400FB22AB
:10353C00F514A3E03400F515851482F583221235B9
:10354C004E229002E7E02FFAA3E034008A82F58342
:10355C002212354E74FF221236CBA3A3A3A3E02272
:10356C00124488850E82850F83123269228510825F
:10357C00851183124397851682851783229002E763
:10358C00EAF0A3EBF09002E7124397E849221238D5
:10359C00C2E8F0A3E9F079112274EA12189874FECB
:1035AC001218288A088B098C128D13EA2405FEE464
:1035BC003509FFAC18AD198E828F83123265120655
:1035CC00018A0C8B0DEE2406F50EE43FF50FEA454F
:1035DC000D700302369DE5082402F50AE43509F561
:1035EC000B8A828B83A3A3A3E0A2E55028851882C3
:1035FC0085198312326512075D8A108B11EA451109
:10360C006020791212325B85108285118312189614
:10361C00E9F50C707F850E82850F83E06009795285
:10362C008011750C0E806D850882850983A3A3A378
:10363C00A3E0F9E4F508F5097808121AAB8E828F2D
:10364C0083A3A3E0F5087808121AAB8E828F83A3AC
:10365C00A3A3121AC28E828F831241F912325F1207
:10366C00076F740612183EE9F50C7011850E8285F1
:10367C000F83E0702D12325F120283802574166561
:10368C000C7011750C0074181218741236C7E48083
:10369C0010750C0112438F851282851383E8F0A3F9
:1036AC00E9F0850E82850F83E0600479008002A921
:1036BC000C740212183E7F0E02196A1236CB22E0ED
:1036CC00F8A3E0F58388822274EC12189874F71230
:1036DC0018288A0A8B0B8C108D11EA2405FEE43510
:1036EC000BFF750C00AC18AD198E828F83123265EE
:1036FC001206018A088B09EA45097003023893E522
:10370C000A2402F50A5002050B8A828B83A3A3A319
:10371C00E0A2E5502F8518828519831232651207B5
:10372C005D8A0C8B0DEA450D604F7912AC08AD0922
:10373C0012325F850C82850D83121896E9F50C60A8
:10374C0003023896850A82850B83E0F508A3E0F521
:10375C0009AA08FB120751EA4B70197AFF7BFF127A
:10376C000751EA4B70030238898A828B83E508F093
:10377C00A3E509F07508008008750C0E0238960553
:10378C00089002DFE0F8E508C39840030238898509
:10379C00080E750F007403780E1218158A828B832D
:1037AC00A3A3E0250EF8A3E0350F123C5D70D08E7C
:1037BC00828F831238B1122EA78E828F83A3A3120D
:1037CC0038B1122EA5EE2404F508E43FF50985085E
:1037DC0082F583E088828983A3A3A3A3F0A3E4F0FA
:1037EC00EE2405F50EE43FF50F850E82F5831238B5
:1037FC00B1A3A3A3A3122EA57512077513007812FB
:10380C00121AABEEFCEFFD740412188612129774A8
:10381C000212183EE4F5127812121AAB8508828552
:10382C000983E0FC7D00791712325F1206D3740213
:10383C0012183E7407121874122EA77407121874FB
:10384C00E0FA4B603D8508828509831238A8121A6C
:10385C00AB850E82850F831241F9121297740212F6
:10386C00183E740212188E12325F120289E9602619
:10387C0074071218741232651213218019750C0911
:10388C008008750C118003750C0112438F85108212
:10389C008511831238BCA90C74098028E0F50875D1
:1038AC00090078082212326988828983221238C270
:1038BC00E8F0A3E9F022E0F8A3E0F9850E82850F89
:1038CC008322740412183E7F0C02196A74EC1218CD
:1038DC00981239CC751000EE2402F50CE43FF50D6E
:1038EC00850C82F5831232651207518A088B09EA1E
:1038FC00450970030239B0850A82850B83E06401A7
:10390C0060030239A5AC08AD09AA0AAB0B12074536
:10391C00E9606E850882850983122C32EE2406F547
:10392C000AE43FF50B8E828F83A3A3121AC28E82F8
:10393C008F83A3A3A3A3121AC2850A82850B8312B9
:10394C001AC279188E828F831239DE1232651207F1
:10395C006F740612183EE9F8741668700B850A82AB
:10396C00850B83E4F0A38014E860128E828F83129F
:10397C003265850E82850F83EAF0A3EBF088108008
:10398C0018780E121AABAC08AD09EEFAEFFB120761
:10399C004B740212183EE9F510AA08AB091207572E
:1039AC00E510700E850C82850D8312326512028F24
:1039BC008009741665107003751000A9100238D3B5
:1039CC00EAFEEBFF8C0E8D0FEE2405F50AE43FF5B5
:1039DC000B22124488850C82850D832274EA1218FE
:1039EC00987508007509007E007F00750A00EC24AC
:1039FC0002F510E43DF5118035EC65087003ED65BA
:103A0C00096003023A9D88828983A3A3E06A70034C
:103A1C00A3E06B707C88828983A3A3A3A312439336
:103A2C00EE28FEEF39FFEA28FAEB39FB050A123BC8
:103A3C006D503A850A0C750D007403780C1218152C
:103A4C00851082851183123B60123C5D601FE50876
:103A5C00450970A58C088D0988828983122C3088C1
:103A6C00828983A3A3E02EFAA3E03F80BEE50AC3BC
:103A7C0094025003023B5B750800750900EE4F6021
:103A8C0010EEFAEFFB12131B8A0E8B0FEA450F7028
:103A9C00057900023B5D750B00023B30850B0C7504
:103AAC000D007403780C121815851082851183E0B3
:103ABC00250CF50CA3E0350DF50DE50C2406F514DD
:103ACC00E4350DF515851482F583123C626042E5F0
:103ADC000C2404F512E4350DF513851282F58312CE
:103AEC001AC2E50E2508FAE50F3509FB1212977478
:103AFC000212183E851282851383E02508F508A36F
:103B0C00E03509F509851482851583123265121387
:103B1C0021E50B600D7C087D007900AA0CAB0D1221
:103B2C0012AF050BE50BC3950A5003023AA885109A
:103B3C008285118312439388828983A3A3A3A3A3B1
:103B4C00A3E50EF0A3E50F1227C3EEF0A3EFF07977
:103B5C00010236C2123B6422E0250CF8A3E0350DBD
:103B6C00229002DFE0F8E50AC3982274F01218984C
:103B7C008A0E8B0F8C0A8D0B750D00750C00805006
:103B8C007916EE2406F508E43FF5098E828F83A39F
:103B9C00A3121AC28E828F83A3A3A3A3121AC28567
:103BAC000882850983121AC2850E82850F83A3A30E
:103BBC0012326512076F740612183EE9F50D741671
:103BCC00650D706C850882850983E4F0A3F0050C03
:103BDC009002DFE0F8E50CC3985066AA0C8A0875D1
:103BEC00090074037808121815850A82850B83A3C3
:103BFC00A3123CACE8FEE9FF8E828F83123C62601C
:103C0C0040EA2401F508E43400F5099002DFE06590
:103C1C00087002E509601488828983A3A3A3A3A377
:103C2C00A3A3A31232946003023B8C7918023B8E3F
:103C3C00E9609B12438F7410121874123C541238A2
:103C4C00BCA90D7F0802196AE0FAA3E0F5838A8209
:103C5C0022F988828983124488EC4D2274F612185A
:103C6C00987C0080010C90033BE0F8ECC398501E4C
:103C7C008C0875090074027808121815123CA1E022
:103C8C006A7003A3E06B70DDE8FAE9FB80047A004C
:103C9C007B00023D449002DD123CAC888289832279
:103CAC00E02508F8A3E03509F92274F21218988A75
:103CBC00088B09750A0080278E828F83A3A3A3A388
:103CCC001227BA60031213217C087D007900EEFAEA
:103CDC00EFFB1212AF8E828F83E4F0A3F0050A1271
:103CEC003B6D5027850A0C750D007403780C121867
:103CFC0015850882850983A3A3E0250CFEA3E03576
:103D0C000DFF8E828F8312329470AD8508828509E7
:103D1C008374FFF0A3F002447C74F6121898120717
:103D2C00038A828B83E582458370067A007B008050
:103D3C0007A3A3A3A31232657F0202196A74F412BB
:103D4C00189889088C828D83E06402703C1243328F
:103D5C00FEA3E0F9EEF87402687003742969702907
:103D6C00750A02750B00780A121AAB7410121874CB
:103D7C00121AC27410121874121AC2A90812113530
:103D8C00740612183EE9F9800279010227F774E8EB
:103D9C0012189874FB121828E9851882851983F07B
:103DAC008A168B17ECFEEDFF7510008E828F83A3A5
:103DBC00A3A3E0A2E4502D741D12187412326512E4
:103DCC00075D8A828B83E582458370030241D1793A
:103DDC000AEEFCEFFDAA16AB17121896E9F5106067
:103DEC00030241D4741F121874E0F508A3E0F5091E
:103DFC007421121874E0F50AA3E0F50B7423121861
:103E0C0074E0F50EA3E0F50F8E828F83E064026000
:103E1C0003024172A3124393850882850983A3850B
:103E2C008212858313EE2406F50CE43FF50D88828F
:103E3C008983124211F514E439F5157814121B35E7
:103E4C00010000280128743E07000228393F03288E
:103E5C00A73E0029684001299340022934400329D8
:103E6C00684004290C417241E50E450F6003024184
:103E7C006D850C82850D83124393E8FAE9FB8A82E7
:103E8C008B83E0850A82850B8312421C121AAB8A43
:103E9C00828B83A3E0FCA3E00240F6E50E450F60A5
:103EAC000302416D850A82850B837401F012420670
:103EBC00850882850983F07C007D008E828F83A328
:103ECC00A3A3A3E02401FAA3E03400FB120601EA49
:103EDC004B60408A828B83E02402F8850A82850B32
:103EEC0083E028F0EA2404F8E43BF988828983E033
:103EFC0085128285138312422A12421C121AAB8A33
:103F0C00828B83A31241F9E5082403FAE43509FBFB
:103F1C000240FB850A82850B83E02404F07C047D3F
:103F2C00007900AA12AB131212AF0241D4E50E4570
:103F3C000F600302416D124206FEA3E0FF850A8268
:103F4C00850B837404F0EE850882850983F0EF8578
:103F5C001282851383F0740312188EEEFAEFFB12A3
:103F6C0006018A0C8B0DEA450D70030240178A82FC
:103F7C008B83A3A3122C30740112187E880E890F28
:103F8C00780E121AAB7405121874121AC27CFF7DCB
:103F9C00FF120607740412183E8B0FEA450F70339C
:103FAC00850C82850D831241FD121AAB850C82851E
:103FBC000D83A3121AC27C027D007AE97B91120355
:103FCC0079740412183EE9700A740112187474FFA3
:103FDC00F0A3F08E828F83E064027039750C027549
:103FEC000D00780C121AAB8E828F83A31241F9E567
:103FFC00082404FAE43509FB121297740212183ED5
:10400C00850A82850B83E0240280097401121874DE
:10401C00EEF0A3EFF074011218741241EB7401125C
:10402C0018741241E2024167E50E450F600302412C
:10403C006D850C82850D83124481AA16AB17121163
:10404C003B850A82850B837402F08508828509837F
:10405C00EAF0851282851383EB02416AE50E450F67
:10406C00600302416D124206F8A3E0F9850A8285CD
:10407C000B837402F0E8850882850983F0E98512C8
:10408C008285138302416A850C82850D8312326509
:10409C00121291EAFAF8C3950EE4950F405CE865AC
:1040AC000E450F70047A008021851882851983E0F3
:1040BC00FCE50E2CFCE4350FFDC3EC98ED940050A0
:1040CC0003E08005E50ECAC39AFAEA850A82850BDD
:1040DC0083F08A0A750B00780A121AAB850C82855C
:1040EC000D83E0250EFCA3E0350FFDAA08AB0912E9
:1040FC001297740212183E0241D47510070241D473
:10410C00E50E450F705B850C82850D8312439385FC
:10411C000A82850B837407F0888289831241E3122B
:10412C0041DBE0851282851383F0E82402FAE4393E
:10413C00FB8A828B831241EB8A828B831241E2A32E
:10414C00A31227C21241F0F0E82405F850010988A7
:10415C008289831241F0A312422AA3A3A3A3F08065
:10416C006775100B8062741D121874123265120779
:10417C00038A828B83E5824583604A124393880CC1
:10418C00890DE8450D603E7425121874E0F5107821
:10419C0010121AAF780E121AAB780A121AAB7808F2
:1041AC00121AAB7407121874E0F9EEFCEFFDAA16A4
:1041BC00AB17850C82850D83121896740712183E66
:1041CC00E9F510800375100EA9107405023528F05E
:1041DC0088828983A322A3E0850882850983221221
:1041EC004231F022124231A3A3229002E3124488FE
:1041FC0022E0F50E750F00780E22850C82850D835A
:10420C001236CBE022E0FAA3E0F8E4C8F9EA28225F
:10421C00F08A828B83E0F50A750B00780A22124132
:10422C00DB12423122E0850882850983A3A3227424
:10423C00EE12189874FE1218288A088B09ECFEED01
:10424C00FF890AAC18AD19EEFAEFFB1206018A0CC5
:10425C008B0DEA450D700302432385188285198363
:10426C001232651207038A828B83E58245837003C1
:10427C0002431EA3A3124393880E890FE8450F70C7
:10428C000302431E7414121874E0F510A3E0F51128
:10429C00E50AF50B780B121AAF7419121874121A6E
:1042AC00C27810121AAB741B121874E0F9AC0CAD76
:1042BC000DAA08AB09850E82850F8312189674051A
:1042CC0012183EE9F50B705274FE650A604C850CB1
:1042DC0082850D83E064027041124332FAA3E0F947
:1042EC00EAF87402687003742969702E851082854F
:1042FC001183124211F50CE439F50D780C121AAB3E
:10430C00EEFCEFFDAA08AB09120787740212183EE7
:10431C008008750B0E8003750B01A90B7402121823
:10432C003E7F0A02196AA312439788828983E0228E
:10433C0074F612189874FE121828740C1218741251
:10434C004393E8851882851983F07401121874E977
:10435C00F0E4F508F5097808121AAB75080278082C
:10436C00121AAB740412187E880889097808121A7C
:10437C00AB79FE12076F740612183E740212183EC7
:10438C00023D448E828F8312439722E0F8A3E0F91A
:10439C002274F7121898EAFEEBFF89089002FA12C1
:1043AC0041F912113BEA5402600BA908EEFAEFFB3B
:1043BC001205F5800279017F0102196A74F2121854
:1043CC009874FE121828EAFEEBFF890A7401650A3C
:1043DC0060147402650A6003024477790112097350
:1043EC00E96003024477EEFAEFFB120751EA4B60E7
:1043FC0003120757A818A919880889097808121AEE
:10440C00AB7508027509007808121AAB7508F575BA
:10441C0009917808121AAB7CFF7DFF7A017B0012A0
:10442C0005FB740612183E8038850882850983A323
:10443C00A3A3A3A3A3124481EEFAEFFB12112FE462
:10444C00F50CF50D780C121AAB7402121874121AC2
:10445C00C27CFF7DFFAA08AB091206077404121870
:10446C003E8A088B09E508450970BE740212183E95
:10447C007F0602196A1236CB12448822E0FCA3E0B4
:10448C00FD2274F41218988A088B09ECFEEDFF904B
:10449C001D22E0F4604B7A097B001212C1EA4B60DA
:1044AC00408A828B8374B1F0A3E41244F0F08A82C8
:1044BC008B83A3A3E508F0A3E5091244F0A3EEF067
:1044CC00A3EFF0740C1218741243938A828B83A39B
:1044DC00A3A3A3A3A3A31238BC901D22E0F912122C
:1044EC00CD0227F7F08A828B83A3A3A3A322C082D9
:1044FC00C0839061907404F0A37448F0A3E4F0902E
:10450C0061807440F09061BC7407F09061877469AD
:10451C00F09061B67416F07900120AA57902120AAD
:10452C00AB9024DCE493F46006E493F9120A8179ED
:10453C0005120E0B024962C082C083E9540FF99038
:10454C006185E0696012E5C654B84441F5C6E59E44
:10455C005447644170F8E9F053C6B8E59E5447706F
:10456C00FA02496274F7121898AEA853A87E120A80
:10457C008DC2BA539AFEC289759B00C2C2120A93AD
:10458C0075A91175B905120A99D2BA439A017480AA
:10459C005E42A8025025C082C083906181E4F0A3E2
:1045AC00801D75E90075910075BF0002011FC08266
:1045BC00C083906181E4F0A374C0F0A3E48002F0A6
:1045CC00A3F0024962C082C08374F81218289003C9
:1045DC006B125D2370030246A490036BE0544060A1
:1045EC00177908AA18AB19120BBFAA18AB19120726
:1045FC00E790036BE054BFF0E054806010790C7AC4
:10460C001C7B07120BBF90036BE0547FF0E0A2E021
:10461C00500F7900120AA51207ED90036BE054FEBF
:10462C00F0E05402600F7901120AA51207ED900315
:10463C006BE054FDF0E05404600F7900120AAB12E9
:10464C0007F390036BE054FBF0E05408600F790122
:10465C00120AAB1207F390036BE054F7F0E054101E
:10466C00600F7902120AAB1207F390036BE054EF60
:10467C00F0E05420600F7903120AAB1207F3900399
:10468C006BE054DFF0A3E05401600D120AB712077F
:10469C00F990036CE054FEF0740812183E02496263
:1046AC00C082C083E9600514602A804F90619A74BF
:1046BC0033F0A37455F09061A0743AF09006F6E0D4
:1046CC0064017009C29190036D7467802D90036D25
:1046DC007461802690619A743FF0A3745AF09061D3
:1046EC00A0747FF09006F6E064017009D2919003FB
:1046FC006D7471800590036D746AF0024962C0821A
:10470C00C083E9600B14600D14601714600C8020DA
:10471C009024E080159024E180109006F6E064016E
:10472C0070059024E280039024E3E493906186F07A
:10473C0002496274EE12189874F412182890917C45
:10474C00AC18AD19740412173B9024E093F4600379
:10475C00024857907808E0C39402500302483B90FB
:10476C00911B740412188E740812173B7F00750C81
:10477C00FF750DFF750EFF7E00EFFC800F74086E49
:10478C00606D74096E6068740A6E60638E087509DA
:10479C0000740278081218151248611216E0A90963
:1047AC00E50AC9F88810741878081215FBE510454D
:1047BC0008FAE9FBEC2CF8E433F97404121874E5EC
:1047CC008228F582E58339124EFBC3E89AE99B40B7
:1047DC0008E8C39AF8E99B8006EAC398F8EB99F9C4
:1047EC00C3E8950CE9950D5006880C890D8E0E0EBC
:1047FC00EEC39413408774FF650C700474FF650D51
:10480C006023850E0874027808121815124861127C
:10481C0016E0851882851983E5822CF582E43583B0
:10482C00F583E508F00FEFC39404500302477A7543
:10483C0008017509007808121AAB740212188E7AE6
:10484C00387B09121189740212183E740C12183E2E
:10485C007F0A02196A74482508F58274783509F5BF
:10486C0083780822C082C083906186E0F89024E3AC
:10487C00E4936870099024E2E493906186F090616F
:10488C00AE7468F0A3746AF090624574FBF0A304F4
:10489C00F053F4FD43FE029006F67401F09061A013
:1048AC00E0643A7004790080027901120AA5024989
:1048BC0062C082C0839006D4E0640170139006DA63
:1048CC00E0F87401686019E87006A3E064016010F8
:1048DC009006EBE06401700C9006F1E0640170044A
:1048EC00790C80027900024962124EEC940622E0A7
:1048FC00C4333354C0222414F582E438F58322C027
:10490C0082C0839006DE7425F09006DC7401F0A35F
:10491C00E4F07A01FB120D87124956241AF582E451
:10492C0038F58374DBF0A3740AF09006DBE06401C5
:10493C0070169006DAE070107901120DE7120DB7BF
:10494C00120DE17900120DF3800C9006CA124CCBBB
:10495C0022E0F9122359D083D08202011FC082C0F9
:10496C008374FA1218289006D3E064017008120AB6
:10497C00C39006D3E4F075E1F11249562415F58283
:10498C00E438F5837401F09006D5E064017046902C
:10499C009131AC18AD19740612173B75D90D9006F0
:1049AC00CC1248FB4403F5D97A00EAF874CD1253C3
:1049BC00F634061248F540F27A00EAF8851882853A
:1049CC001983E5821253F635831248F540EC75E1F4
:1049DC0095790180027900120D8D901D46124A497D
:1049EC007467F0A3740CF0A3124A49124A49124B93
:1049FC009E746DF0A3740C124BB39006CCE0F97A54
:104A0C00CD7B06120D699006DEE0F912235979016F
:104A1C00120D939091741216FE120DAB90915412CC
:104A2C0016FE120D757900120DFF1249561249022D
:104A3C007416F09003697405F0040246A67461F0D4
:104A4C00A3740CF0A32274F71218988908A8081202
:104A5C0056F69006E3E0F97AE47B06120D699006AF
:104A6C00F1E070257900120DC9EE2406FAEF34013D
:104A7C00FBEE240CF582EF3401F583E07004790031
:104A8C0080027901120D6F80057901120DC975E153
:104A9C00F175D9239006E31248FB4405F5D97A0049
:104AAC00EAF874E41253F634061248F540F275D95C
:104ABC000075D90075D90075D90075D90075D90064
:104ACC007A00124B8B2422124EE240F67A00124BE3
:104ADC008B2426F582E439124E2CEAC3940340EE63
:104AEC00EE242B124ED7242C124ED7242D124ED737
:104AFC00242E124ED7242F124ED72430124ED724E8
:104B0C0031124ED72432124ED72433124ECB124BC5
:104B1C008B245DF582E439124F5940F2EE243712A2
:104B2C004FF7541FF8EE242A124FF7C43354E048C1
:104B3C00F5D975E195901D467431F0A3740CF0A372
:104B4C007437F0A3740C124B95743DF0A3740C12D3
:104B5C004BB39006F0E0F91223599091741216FEA3
:104B6C00120DAB9091541216FE120D7590600DE45F
:104B7C00F07901120DFF9003697406F0025025EADA
:104B8C00F8EE28F8E43FF9E822F0A3124B9E124B02
:104B9C009E22124BA222742BF0A3740CF0A3742B44
:104BAC00F0A3740CF0A322124BB722F0901D5412F8
:104BBC004BC3A3124BC322124BA2742BF0A3740C45
:104BCC00F02274EC1218989006E112570D7810121E
:104BDC0016E09006F2E0FAF875F00DA4C8ACF02CD3
:104BEC001258A6EE2EFEEF33FF8E0CF50D750E004F
:104BFC00750F0085100885110985120A85130B9015
:104C0C00919078081216467808121AA78510088514
:104C1C00110985120A85130B7808790C1216337852
:104C2C0010790C12157BE4F50EF50F7808790C123F
:104C3C00166C8A0C750D007403780C121815780814
:104C4C00790C12163390916478081216A7AA08AB47
:104C5C0009AC0AAD0B1222F1740412183E8A088BAF
:104C6C0009A808A909C3EE98EF995006E82EF8E9AF
:104C7C003FF9E890600EF0E9A3F0EEA3F0EFA3F09B
:104C8C0090600D74C1F07F0C02196AC082C08390D1
:104C9C0006CA124CB79006DE02495DC082C08390F2
:104CAC0006E1124CB79006F002495D124CCB124C47
:104CBC00C1F0A3F0222406F582E438F583E422E067
:104CCC00F8A3E0C82202011F74F2121898124D9D2D
:104CDC00FAEE2483F50AE43FF50B850A82F583E0AE
:104CEC006004780480027800E8240EF8EAC3985037
:104CFC0003024D9875080C9006FCE4F0EE24761235
:104D0C004FF79006FDF07902EE2477FCE43FFD7A34
:104D1C00FE7B06120BAD7902EE2479FCE43FFD120A
:104D2C000BAD7902EE247BFCE43FFD120BAD790256
:104D3C00EE247DFCE43FFD120BADEE2474124E3ECE
:104D4C00120BAD850A82850B83E0601E7508FC751D
:104D5C0009067808121AAB7C0C7903EEFAEFFB12F9
:104D6C000C1F740212183E75081074012508F5D931
:104D7C0075D9037A008003124E29EAC3950840F7CF
:104D8C0075E1957904120DB1790180027900025117
:104D9C0049EAFEEBFF9061D0E0F87480C39822746E
:104DAC00F212189812514E6004780480027800E8D0
:104DBC00240AF8EAC3984060750A089006FC74014E
:104DCC00F079057CC07D067AFD7B06120BADEE24D6
:104DDC0080124E3E120BAD850882850983E0601E61
:104DEC007508FC7509067808121AAB7C087903EE75
:104DFC00FAEFFB120C1F740212183E750A0C1250BB
:104E0C00A88003124E29EAC3950A40F775E19579FB
:104E1C0004120DB1790180027900025149124E330E
:104E2C00F583E0F5D90A22EAF874FC28F582E4341B
:104E3C000622FCE43FFD8E828F83A3A3A3A3A312BF
:104E4C005D308C828D83E028F0A3E039F07902226A
:104E5C0074F7121898EAFEEBFF9061D0E0705B7566
:104E6C00D91875D90375D9037A00124B8B249C126F
:104E7C004EF540F6EE24A4124ED724A5124ECB12BA
:104E8C004B8B2494124EF540F67A00124B8B2488EF
:104E9C00124EE240F675E1957908EE2494FAE43F5F
:104EAC00FB120BB37904EE2488FAE43FFB120BB32C
:104EBC007904120DB112500280027900025025F5CE
:104ECC0082E43FF583E0F5D97A0022F582E43FF5E0
:104EDC0083E0F5D9EE22124EE8940422F582E439EF
:104EEC00F583E0F5D90AEAC322124EE8940822F5BC
:104EFC0083125D302274F6121898EAFEEBFF9006CE
:104F0C00FC7406124F9C121AAB7C017903120C1F15
:104F1C00740212183E75D90675D9037A00124F56D1
:104F2C0040FB75E195900369E064087018EE246FFE
:104F3C00F582E43F124EFBEE2471F582E43FF583DB
:104F4C00E8F0A3E9F079010251E7124E33124EEC6E
:104F5C0094052274F6121898EAFEEBFF9061D0E0EB
:104F6C0070299006FC740A124F9C121AAB7C0179C2
:104F7C0003120C1F740212183E75D90675D9037AE8
:104F8C0000124F5640FB124FFF800279000251E78E
:104F9C00F07508FC75090678082274F6121898EA60
:104FAC00FEEBFF9061D0E0703D7A019006FC740B33
:104FBC00F0900369E06407701B7508FC75090678AE
:104FCC0008121AAB7C017903EEFA120C1F74021250
:104FDC00183E7A051251FA8003125205EBC39A401F
:104FEC00F8124FFF800279000251E7F582E43FF599
:104FFC0083E02275E195EE246FF582E43FF5831290
:10500C005D30EE2471F582E43FF583E8F0A3E9F01E
:10501C00790122A2E092AF79007F0102196A74F53E
:10502C001218981250B46004780480027800E824B6
:10503C000BF8EAC3984052750A099006FC7408F004
:10504C00F912509C120BAD850882850983E0601E15
:10505C007508FC7509067808121AAB7C097903EE01
:10506C00FAEFFB120C1F740212183E750A0D125047
:10507C00A88003124E29EAC3950A40F775E1957989
:10508C0004120DB1125002800279007F0302196ADA
:10509C00EE24E5FCE43FFD7AFD7B06227401250A33
:1050AC00F5D975D9037A002212515EF8E43FF988DC
:1050BC000889098882F583E02274F212189812513B
:1050CC004E6004780480027800E82408F8EAC3985B
:1050DC004069750A069006FC740CF0900386E0900B
:1050EC0006FDF079027C877D037AFE7B06120BAD00
:1050FC0079027C897D03120BAD850882850983E0DA
:10510C00601E7508FC7509067808121AAB7C0679C6
:10511C0003EEFAEFFB120C1F740212183E750A0A0A
:10512C001250A88003124E29EAC3950A40F775E184
:10513C00957904120DB1125002800279007F06029B
:10514C00196A12515EF508E43FF509850882F5836A
:10515C00E022EAFEEBFF9061D0E0F87480C398FA8D
:10516C00EE24832274F6121898124D9DFCEE2483C3
:10517C00F8E43FF988828983E060047A0480027A3B
:10518C0000EA2404FAECC39A404F7A029006FCEA37
:10519C00F0EE24F7F582E43F125210E0601B750824
:1051AC00FC7509067808121AAB7C027903EEFA1228
:1051BC000C1F740212183E7A061251FA8003125216
:1051CC0005EBC39A40F875E1951251EC7904120D78
:1051DC00B1EE240D125005800279007F0202196A8B
:1051EC00EE241DF582E43FF583E4F0A3F022740174
:1051FC002AF5D975D9037B0022EB124E34F583E0E6
:10520C00F5D90B22F583E09006FDF0888289832284
:10521C0074F6121898124DA1FEEA2483F8E43BF9B7
:10522C0088828983E060047C0480027C00EC240486
:10523C00FCEEC39C40477C029006FC7407F0EA2409
:10524C00F8F582E43B125210E060177508FC750902
:10525C00067808121AAB7903120C1F740212183E4E
:10526C007C0674012CF5D975D9037A008003124E93
:10527C0029EAC39C40F875E1957901800279000216
:10528C0051E774F71218988908A2AFE433FFC2AF44
:10529C007E0012532080010E8C828D83E0F8EEC3C9
:1052AC0098500CEEF81252CEE0650870EA800B12A2
:1052BC0052CEE508125D36E004F0EFA2E092AF02A8
:1052CC0050251253311259B02274F7121898A2AF0C
:1052DC00E433FFC2AF1253208C828D83E014F07E36
:1052EC00008016EE12532C246BF582E439F583E022
:1052FC00C0E01259ABD0E0F00E8C828D83E0F8EE5A
:10530C00C39840DFEA246DF582E43BF58374FF1209
:10531C00535780A6EA246EF8E43BF9E8FCE9FD2239
:10532C00F812533122EA28F8E43BF9E822C082C093
:10533C0083A8A8C2AFEA1255C7E9125357E8A2E7EF
:10534C00E433FAE8A2E792AF024962F0EA24691268
:10535C00535F22F582E43BF583E4F02274F21218D9
:10536C00988C828D83A3A3A3A3E0541FF0EA243668
:10537C00125A728E828F83E4F0750C00A80CEC2804
:10538C00F508E43DF509850882F583E0C0E0125587
:10539C00E0D0E0F0750D00850882850983E0F50A00
:1053AC00750B00E50D780A1217F6E50AA2E05025F8
:1053BC00E50C33333354F8250DC0E08E828F83E037
:1053CC0012532C2438F582E439F583D0E0F08E8228
:1053DC008F83E004F0050DE50DC3940840B9050C6E
:1053EC00E50CC39405409502514928F582E42274DA
:1053FC00F4121898900395E0640370030255C17C75
:10540C0000ECF875F00DA4C8AAF02A125688E060DA
:10541C00030255B7E82404FAE439FB8A828B83A390
:10542C00A37401125CCFA3A3A3E4F0EA2404125AE0
:10543C0072EC8E828F83F0125C707401F0EA246738
:10544C00F582E43BF58374011255ECE4F0A312559C
:10545C00ECA3A31255FE240FF582E43BF5837401F3
:10546C00F0EA243512535FF508F509F50AF50BEA55
:10547C002418F582E43BF58378081216EFEA241C15
:10548C001255D0241D1255F7247F1255D0247312B7
:10549C0055D024821255D02468F582E43BF58374F0
:1054AC0080125357EA246E1255D024ED1255D02495
:1054BC00EE1255D024EF1255D024F01255D024F111
:1054CC001255F724F31255F724F612535F125C7A37
:1054DC00E4F0EA24D31255D024D41255D024D5F5B7
:1054EC0082E43BF58378081216EFEA24D9F582E4BE
:1054FC003BF58378081216EFEA24DF1255D024E12D
:10550C001255D024DD1255D024E21255D024E312CA
:10551C0055D024F91255F724FB1255F724FD1255DA
:10552C00F724FF1255F7240C1255D524061255D525
:10553C0024071255D524081255D524091255D52403
:10554C000A1255D5240B1255D51255C774FF780481
:10555C00F0A3D8FC7C00ECF874C01253F63406F5BA
:10556C0083E0C0E01255E0D0E0F00CECC3940540B1
:10557C00E57C00ECF8747D1253F63403F583E0C03F
:10558C00E012532D24E5F582E439F583D0E0F00CDC
:10559C00ECC3940840DD900395E004F064017019AD
:1055AC008E828F83E0900397F0800E0CECC39403F3
:1055BC00500302540D7A007B008041246AF582E48A
:1055CC003BF5832212535FEA22F582EB3401F5831B
:1055DC00E4F0EA22125331245DF582E439F583229A
:1055EC00F08A828B83A3A3A3A3A322F582E43BF5C9
:1055FC0083E4F0A3F0EA22740412183E7F0402192B
:10560C006AC082C083EA2403F582E43BF583E06040
:10561C0008E4F0900396E014F0900395E014F07019
:10562C000690039774FFF08A828B83A3A3E4F09017
:10563C0006C5E0700D900396E064017005790012C8
:10564C000D7B024962C082C0837A00EAF875F00DC6
:10565C00A4C8ABF02B125688A3E4125216A3A3A332
:10566C00A3A3A3F00AEAC3940340E0900395E4F0EB
:10567C00A3F0A374FFF075E1F1024962F974952867
:10568C00F874031259A1A3A3A32274F512189875E8
:10569C000800750900750A00A80A1256F68E828F4A
:1056AC0083A3A3A3E0602BE5084509601D85088250
:1056BC0085098312570D121ABE1257091216FE12C3
:1056CC002295740412183EE97008EEF8EFF9880878
:1056DC008909050AE50AC3940340BD85088285093A
:1056EC0083A3A3A3A3E0F9025097E875F00DA4C817
:1056FC00AAF02AF9749928FE740339FF228E828F3E
:10570C0083E0F8A3E0F5838882A3A32274F7121830
:10571C009878FF79FF7E00EEFC75F00DA4CCAFF00D
:10572C002FFD74992CFC74033DFD8C828D83A3A3F7
:10573C00A3E06040EC2473F582E43DF583E0FF7454
:10574C00FF68700374FF69700774016F701C800D23
:10575C0074016F700DEC24791257955017EC247965
:10576C00800BEC242E125795500AEC242EF582E473
:10577C003D124EFB0EEEC39403409CC3EA98EB998A
:10578C004004E8FAE9FB025025F582E43DF583C3B9
:10579C00E098A3E0992274F01218988C088D09896E
:1057AC000EEA2AF50AEB33850A0CF50D900396E008
:1057BC00F8E9C39850117AFF7BFF120B598A0A8BB8
:1057CC000BAE0AAF0B8017E96010A3E0F875F00D73
:1057DC00A4C8AAF02A1258A68004AE0CAF0D9003F0
:1057EC0096E0F50F8E0A8F0B7403780A121806A830
:1057FC000FC3E50A98E50B94005003025892850CF0
:10580C000A850D0BE50825E0F508E50933F509AC2B
:10581C000AAD0B8007EC2402FCE43DFDC3E5089CBB
:10582C00E5099D404FC3EC9EED9F402FECF8EDF940
:10583C00EEFAEFFB12179D8A0C8B0DA80CA90DE844
:10584C00496006EEFAEFFB80047A007B00EC98F8D6
:10585C00ED99F9E82AFCE93BFD8019E50EC3950F9B
:10586C005012EEF8EFF9ECFAEDFB12179D8B0DEAE6
:10587C00450D70A1C3EC950AED950B4009C3E508E5
:10588C009CE5099D50067AFF7BFF8009ECFAEDC37D
:10589C0013FBEA13FA7F0802196AF974C728F58218
:1058AC00740339F583E0FEA3E0FF2274F412189818
:1058BC0074FC121828EAFEEBFFEE2463F508E43FB3
:1058CC00F5098016AA08AB09120BA1121321900638
:1058DC00C6E004F09006C7E004F0850882850983D1
:1058EC00125D2370DF9006C7E060358E828F83A334
:1058FC00A3A3A3E0851882851983F0A3E4F0900696
:10590C00C7E0F87402121874E8F0A3E4F074021201
:10591C00188EAA18AB1979011208599006C7E4F031
:10592C00EEFAEFFB120B47EEFAEFFB120CA9025644
:10593C000374F7121898EAFEEBFF8E828F83A3A3F1
:10594C00A3A3E0FA7B0012082FEEFAEFFB120B6513
:10595C00120C8B025025C082C0837A00EAF875F0D5
:10596C000DA4C8ABF02BF9749928F874031259A143
:10597C00E06016E8246EF582E439F583E0600A12E3
:10598C0059ABE07004790180090AEAC3940340CC56
:10599C00790002496239F988828983A3A3A322E89A
:1059AC001259B022246AF582E439F58322C082C0F0
:1059BC0083E490037D7808F0A3D8FC90037D040267
:1059CC0045CD74F712189874FC1218288518828526
:1059DC001983E4F0A3F0A3F0A3F0120BB9E9851836
:1059EC0082851983F0120BB97401121874E9F01244
:1059FC000BB97402121874E9F08518828519831298
:105A0C0016FE740412183E02502574F6121898EA09
:105A1C00240D125A72EC2403F8E43DF98808890924
:105A2C00EC2407F8E43DF9E8FCE9FD8C828D831247
:105A3C004EFD850882850983E0FAA3E0FB12179DD1
:105A4C008E828F83E8F0A3E9125D2985088285098F
:105A5C0083E0FAA3E0FB12179D8B09EA450960036A
:105A6C00125A7B0251E7F8E43BF9E8FEE9FF228E7B
:105A7C00828F83E02401F0A3E03400F02274F6124C
:105A8C001898EA242EF582E43BF583E0FCA3E0FDB4
:105A9C00EA246F125A72780079FAECFAEDFB1217BD
:105AAC009D8E828F83E8F0A3E9F0780079FAECFA06
:105ABC00EDFB12179D8B09EA45096003125A7B0214
:105ACC0051E774F4121898EAFEEBFF120D3F8A08A6
:105ADC008B098C0A8D0B9091D078081216469091F8
:105AEC006478081216A77808121AA712570912160A
:105AFC00FE122295740412183EE96003025BBA8E02
:105B0C00828F83E02402F8A3E03400F9E8FAE9FB81
:105B1C00740C12187478081216E08A828B83780839
